{
  "address": "0xe63Ff31C7B78620739de8CF2254E5Adde1ba13B7",
  "abi": [
    {
      "inputs": [],
      "stateMutability": "nonpayable",
      "type": "constructor"
    },
    {
      "anonymous": false,
      "inputs": [
        {
          "indexed": false,
          "internalType": "uint256",
          "name": "_id",
          "type": "uint256"
        },
        {
          "indexed": false,
          "internalType": "string",
          "name": "Title",
          "type": "string"
        },
        {
          "indexed": false,
          "internalType": "address",
          "name": "createdBy",
          "type": "address"
        }
      ],
      "name": "proposalCreated",
      "type": "event"
    },
    {
      "inputs": [
        {
          "internalType": "uint256",
          "name": "",
          "type": "uint256"
        }
      ],
      "name": "ProposalData",
      "outputs": [
        {
          "internalType": "uint256",
          "name": "ProposalID",
          "type": "uint256"
        },
        {
          "internalType": "string",
          "name": "proposalTitle",
          "type": "string"
        },
        {
          "internalType": "string",
          "name": "proposalDescription",
          "type": "string"
        },
        {
          "internalType": "address",
          "name": "createdBy",
          "type": "address"
        },
        {
          "internalType": "uint256",
          "name": "yesVotes",
          "type": "uint256"
        },
        {
          "internalType": "uint256",
          "name": "noVotes",
          "type": "uint256"
        },
        {
          "internalType": "uint256",
          "name": "totalVotes",
          "type": "uint256"
        },
        {
          "internalType": "bool",
          "name": "excecuted",
          "type": "bool"
        }
      ],
      "stateMutability": "view",
      "type": "function"
    },
    {
      "inputs": [
        {
          "internalType": "string",
          "name": "_Title",
          "type": "string"
        },
        {
          "internalType": "string",
          "name": "_Description",
          "type": "string"
        }
      ],
      "name": "createProposal",
      "outputs": [],
      "stateMutability": "nonpayable",
      "type": "function"
    },
    {
      "inputs": [
        {
          "internalType": "uint256",
          "name": "_proposalId",
          "type": "uint256"
        }
      ],
      "name": "exceuteProposal",
      "outputs": [],
      "stateMutability": "nonpayable",
      "type": "function"
    },
    {
      "inputs": [
        {
          "internalType": "address",
          "name": "nftAddress",
          "type": "address"
        }
      ],
      "name": "getBalance",
      "outputs": [
        {
          "internalType": "uint256",
          "name": "",
          "type": "uint256"
        }
      ],
      "stateMutability": "view",
      "type": "function"
    },
    {
      "inputs": [
        {
          "internalType": "uint256",
          "name": "_proposalId",
          "type": "uint256"
        }
      ],
      "name": "getProposal",
      "outputs": [
        {
          "components": [
            {
              "internalType": "uint256",
              "name": "ProposalID",
              "type": "uint256"
            },
            {
              "internalType": "string",
              "name": "proposalTitle",
              "type": "string"
            },
            {
              "internalType": "string",
              "name": "proposalDescription",
              "type": "string"
            },
            {
              "internalType": "address",
              "name": "createdBy",
              "type": "address"
            },
            {
              "internalType": "uint256",
              "name": "yesVotes",
              "type": "uint256"
            },
            {
              "internalType": "uint256",
              "name": "noVotes",
              "type": "uint256"
            },
            {
              "internalType": "uint256",
              "name": "totalVotes",
              "type": "uint256"
            },
            {
              "internalType": "bool",
              "name": "excecuted",
              "type": "bool"
            }
          ],
          "internalType": "struct SimplDAO.Proposal",
          "name": "",
          "type": "tuple"
        }
      ],
      "stateMutability": "view",
      "type": "function"
    },
    {
      "inputs": [],
      "name": "getProposalCount",
      "outputs": [
        {
          "internalType": "uint256",
          "name": "",
          "type": "uint256"
        }
      ],
      "stateMutability": "view",
      "type": "function"
    },
    {
      "inputs": [],
      "name": "proposalCount",
      "outputs": [
        {
          "internalType": "uint256",
          "name": "",
          "type": "uint256"
        }
      ],
      "stateMutability": "view",
      "type": "function"
    },
    {
      "inputs": [
        {
          "internalType": "uint256",
          "name": "_proposalId",
          "type": "uint256"
        },
        {
          "internalType": "enum SimplDAO.voteOption",
          "name": "vote",
          "type": "uint8"
        },
        {
          "internalType": "address",
          "name": "nftAddress",
          "type": "address"
        }
      ],
      "name": "voteProposal",
      "outputs": [],
      "stateMutability": "nonpayable",
      "type": "function"
    }
  ],
  "transactionHash": "0xf9c847dd7e76bc7664eb2b3983e9dd0dc8099f4913af6c0ec85a64d2e62e30d1",
  "args": [],
  "numDeployments": 3,
  "solcInputHash": "959d551dad79353d868a49073c097198",
  "bytecode": "0x608060405234801561001057600080fd5b50336000806101000a81548173ffffffffffffffffffffffffffffffffffffffff021916908373ffffffffffffffffffffffffffffffffffffffff1602179055506118c0806100606000396000f3fe608060405234801561001057600080fd5b50600436106100885760003560e01c8063c7f758a81161005b578063c7f758a81461011a578063da35c6641461014a578063f8b2cb4f14610168578063fd0b8fe01461019857610088565b80630d6288a71461008d57806365e481e2146100c45780639160fabe146100e0578063c08cc02d146100fc575b600080fd5b6100a760048036038101906100a29190610c2a565b6101b4565b6040516100bb989796959493929190610d52565b60405180910390f35b6100de60048036038101906100d99190610f13565b610339565b005b6100fa60048036038101906100f59190610c2a565b610423565b005b610104610574565b6040516101119190610f8b565b60405180910390f35b610134600480360381019061012f9190610c2a565b61057e565b60405161014191906110d4565b60405180910390f35b61015261076f565b60405161015f9190610f8b565b60405180910390f35b610182600480360381019061017d9190611122565b610775565b60405161018f9190610f8b565b60405180910390f35b6101b260048036038101906101ad9190611174565b61080b565b005b60026020528060005260406000206000915090508060000154908060010180546101dd906111f6565b80601f0160208091040260200160405190810160405280929190818152602001828054610209906111f6565b80156102565780601f1061022b57610100808354040283529160200191610256565b820191906000526020600020905b81548152906001019060200180831161023957829003601f168201915b50505050509080600201805461026b906111f6565b80601f0160208091040260200160405190810160405280929190818152602001828054610297906111f6565b80156102e45780601f106102b9576101008083540402835291602001916102e4565b820191906000526020600020905b8154815290600101906020018083116102c757829003601f168201915b5050505050908060030160009054906101000a900473ffffffffffffffffffffffffffffffffffffffff16908060040154908060050154908060060154908060070160009054906101000a900460ff16905088565b6000600260006001548152602001908152602001600020905060015481600001819055508281600101908161036e91906113d3565b508181600201908161038091906113d3565b50338160030160006101000a81548173ffffffffffffffffffffffffffffffffffffffff021916908373ffffffffffffffffffffffffffffffffffffffff160217905550600160008154809291906103d7906114d4565b91905055507f714aa979410b0af635e3d28a85a5b282ef1db3f1f2052962359cbdb2c53747d181600001548260010133604051610416939291906115a0565b60405180910390a1505050565b60008111610466576040517f08c379a000000000000000000000000000000000000000000000000000000000815260040161045d9061162a565b60405180910390fd5b60006002600083815260200190815260200160002090508060030160009054906101000a900473ffffffffffffffffffffffffffffffffffffffff1673ffffffffffffffffffffffffffffffffffffffff163373ffffffffffffffffffffffffffffffffffffffff161461050f576040517f08c379a0000000000000000000000000000000000000000000000000000000008152600401610506906116bc565b60405180910390fd5b8060050154816004015411156105415760018160070160006101000a81548160ff021916908315150217905550610570565b80600501548160040154101561056f5760008160070160006101000a81548160ff0219169083151502179055505b5b5050565b6000600154905090565b610586610b83565b60006002600084815260200190815260200160002060405180610100016040529081600082015481526020016001820180546105c1906111f6565b80601f01602080910402602001604051908101604052809291908181526020018280546105ed906111f6565b801561063a5780601f1061060f5761010080835404028352916020019161063a565b820191906000526020600020905b81548152906001019060200180831161061d57829003601f168201915b50505050508152602001600282018054610653906111f6565b80601f016020809104026020016040519081016040528092919081815260200182805461067f906111f6565b80156106cc5780601f106106a1576101008083540402835291602001916106cc565b820191906000526020600020905b8154815290600101906020018083116106af57829003601f168201915b505050505081526020016003820160009054906101000a900473ffffffffffffffffffffffffffffffffffffffff1673ffffffffffffffffffffffffffffffffffffffff1673ffffffffffffffffffffffffffffffffffffffff1681526020016004820154815260200160058201548152602001600682015481526020016007820160009054906101000a900460ff161515151581525050905080915050919050565b60015481565b6000670de0b6b3a76400008273ffffffffffffffffffffffffffffffffffffffff166370a08231336040518263ffffffff1660e01b81526004016107b991906116dc565b602060405180830381865afa1580156107d6573d6000803e3d6000fd5b505050506040513d601f19601f820116820180604052508101906107fa919061170c565b6108049190611768565b9050919050565b600083101561084f576040517f08c379a00000000000000000000000000000000000000000000000000000000081526004016108469061162a565b60405180910390fd5b600061088f6040518060400160405280600d81526020017f766f74696e6720626567696e7300000000000000000000000000000000000000815250610a28565b600060026000868152602001908152602001600020905060006108b184610775565b9050600081116108f6576040517f08c379a00000000000000000000000000000000000000000000000000000000081526004016108ed906117e5565b60405180910390fd5b6000600181111561090a57610909611805565b5b85600181111561091d5761091c611805565b5b0361098d578082600401546109329190611834565b925082826004018190555061097b6040518060400160405280600d81526020017f766f74656420666f722079657300000000000000000000000000000000000000815250610a28565b6109888260040154610ac1565b610a20565b6001808111156109a05761099f611805565b5b8560018111156109b3576109b2611805565b5b03610a1f578082600501546109c89190611834565b9250828260050181905550610a116040518060400160405280600c81526020017f766f74656420666f72206e6f0000000000000000000000000000000000000000815250610a28565b610a1e8260050154610ac1565b5b5b505050505050565b610abe81604051602401610a3c9190611868565b6040516020818303038152906040527f41304fac000000000000000000000000000000000000000000000000000000007bffffffffffffffffffffffffffffffffffffffffffffffffffffffff19166020820180517bffffffffffffffffffffffffffffffffffffffffffffffffffffffff8381831617835250505050610b5a565b50565b610b5781604051602401610ad59190610f8b565b6040516020818303038152906040527ff82c50f1000000000000000000000000000000000000000000000000000000007bffffffffffffffffffffffffffffffffffffffffffffffffffffffff19166020820180517bffffffffffffffffffffffffffffffffffffffffffffffffffffffff8381831617835250505050610b5a565b50565b60008151905060006a636f6e736f6c652e6c6f679050602083016000808483855afa5050505050565b604051806101000160405280600081526020016060815260200160608152602001600073ffffffffffffffffffffffffffffffffffffffff1681526020016000815260200160008152602001600081526020016000151581525090565b6000604051905090565b600080fd5b600080fd5b6000819050919050565b610c0781610bf4565b8114610c1257600080fd5b50565b600081359050610c2481610bfe565b92915050565b600060208284031215610c4057610c3f610bea565b5b6000610c4e84828501610c15565b91505092915050565b610c6081610bf4565b82525050565b600081519050919050565b600082825260208201905092915050565b60005b83811015610ca0578082015181840152602081019050610c85565b60008484015250505050565b6000601f19601f8301169050919050565b6000610cc882610c66565b610cd28185610c71565b9350610ce2818560208601610c82565b610ceb81610cac565b840191505092915050565b600073ffffffffffffffffffffffffffffffffffffffff82169050919050565b6000610d2182610cf6565b9050919050565b610d3181610d16565b82525050565b60008115159050919050565b610d4c81610d37565b82525050565b600061010082019050610d68600083018b610c57565b8181036020830152610d7a818a610cbd565b90508181036040830152610d8e8189610cbd565b9050610d9d6060830188610d28565b610daa6080830187610c57565b610db760a0830186610c57565b610dc460c0830185610c57565b610dd160e0830184610d43565b9998505050505050505050565b600080fd5b600080fd5b7f4e487b7100000000000000000000000000000000000000000000000000000000600052604160045260246000fd5b610e2082610cac565b810181811067ffffffffffffffff82111715610e3f57610e3e610de8565b5b80604052505050565b6000610e52610be0565b9050610e5e8282610e17565b919050565b600067ffffffffffffffff821115610e7e57610e7d610de8565b5b610e8782610cac565b9050602081019050919050565b82818337600083830152505050565b6000610eb6610eb184610e63565b610e48565b905082815260208101848484011115610ed257610ed1610de3565b5b610edd848285610e94565b509392505050565b600082601f830112610efa57610ef9610dde565b5b8135610f0a848260208601610ea3565b91505092915050565b60008060408385031215610f2a57610f29610bea565b5b600083013567ffffffffffffffff811115610f4857610f47610bef565b5b610f5485828601610ee5565b925050602083013567ffffffffffffffff811115610f7557610f74610bef565b5b610f8185828601610ee5565b9150509250929050565b6000602082019050610fa06000830184610c57565b92915050565b610faf81610bf4565b82525050565b600082825260208201905092915050565b6000610fd182610c66565b610fdb8185610fb5565b9350610feb818560208601610c82565b610ff481610cac565b840191505092915050565b61100881610d16565b82525050565b61101781610d37565b82525050565b6000610100830160008301516110366000860182610fa6565b506020830151848203602086015261104e8282610fc6565b915050604083015184820360408601526110688282610fc6565b915050606083015161107d6060860182610fff565b5060808301516110906080860182610fa6565b5060a08301516110a360a0860182610fa6565b5060c08301516110b660c0860182610fa6565b5060e08301516110c960e086018261100e565b508091505092915050565b600060208201905081810360008301526110ee818461101d565b905092915050565b6110ff81610d16565b811461110a57600080fd5b50565b60008135905061111c816110f6565b92915050565b60006020828403121561113857611137610bea565b5b60006111468482850161110d565b91505092915050565b6002811061115c57600080fd5b50565b60008135905061116e8161114f565b92915050565b60008060006060848603121561118d5761118c610bea565b5b600061119b86828701610c15565b93505060206111ac8682870161115f565b92505060406111bd8682870161110d565b9150509250925092565b7f4e487b7100000000000000000000000000000000000000000000000000000000600052602260045260246000fd5b6000600282049050600182168061120e57607f821691505b602082108103611221576112206111c7565b5b50919050565b60008190508160005260206000209050919050565b60006020601f8301049050919050565b600082821b905092915050565b6000600883026112897fffffffffffffffffffffffffffffffffffffffffffffffffffffffffffffffff8261124c565b611293868361124c565b95508019841693508086168417925050509392505050565b6000819050919050565b60006112d06112cb6112c684610bf4565b6112ab565b610bf4565b9050919050565b6000819050919050565b6112ea836112b5565b6112fe6112f6826112d7565b848454611259565b825550505050565b600090565b611313611306565b61131e8184846112e1565b505050565b5b818110156113425761133760008261130b565b600181019050611324565b5050565b601f8211156113875761135881611227565b6113618461123c565b81016020851015611370578190505b61138461137c8561123c565b830182611323565b50505b505050565b600082821c905092915050565b60006113aa6000198460080261138c565b1980831691505092915050565b60006113c38383611399565b9150826002028217905092915050565b6113dc82610c66565b67ffffffffffffffff8111156113f5576113f4610de8565b5b6113ff82546111f6565b61140a828285611346565b600060209050601f83116001811461143d576000841561142b578287015190505b61143585826113b7565b86555061149d565b601f19841661144b86611227565b60005b828110156114735784890151825560018201915060208501945060208101905061144e565b86831015611490578489015161148c601f891682611399565b8355505b6001600288020188555050505b505050505050565b7f4e487b7100000000000000000000000000000000000000000000000000000000600052601160045260246000fd5b60006114df82610bf4565b91507fffffffffffffffffffffffffffffffffffffffffffffffffffffffffffffffff8203611511576115106114a5565b5b600182019050919050565b60008154611529816111f6565b6115338186610c71565b9450600182166000811461154e576001811461156457611597565b60ff198316865281151560200286019350611597565b61156d85611227565b60005b8381101561158f57815481890152600182019150602081019050611570565b808801955050505b50505092915050565b60006060820190506115b56000830186610c57565b81810360208301526115c7818561151c565b90506115d66040830184610d28565b949350505050565b7f50726f706f73616c20646f65736e277420657869737400000000000000000000600082015250565b6000611614601683610c71565b915061161f826115de565b602082019050919050565b6000602082019050818103600083015261164381611607565b9050919050565b7f746865206f776e6572206f6e6c792063616e206578636563757465207468652060008201527f70726f706f73616c000000000000000000000000000000000000000000000000602082015250565b60006116a6602883610c71565b91506116b18261164a565b604082019050919050565b600060208201905081810360008301526116d581611699565b9050919050565b60006020820190506116f16000830184610d28565b92915050565b60008151905061170681610bfe565b92915050565b60006020828403121561172257611721610bea565b5b6000611730848285016116f7565b91505092915050565b7f4e487b7100000000000000000000000000000000000000000000000000000000600052601260045260246000fd5b600061177382610bf4565b915061177e83610bf4565b92508261178e5761178d611739565b5b828204905092915050565b7f546865207573657220646f65736e742773206f776e20616e79204e4654000000600082015250565b60006117cf601d83610c71565b91506117da82611799565b602082019050919050565b600060208201905081810360008301526117fe816117c2565b9050919050565b7f4e487b7100000000000000000000000000000000000000000000000000000000600052602160045260246000fd5b600061183f82610bf4565b915061184a83610bf4565b9250828201905080821115611862576118616114a5565b5b92915050565b600060208201905081810360008301526118828184610cbd565b90509291505056fea264697066735822122066c261843099de81d04fd5d719aac194fc0388a88e8bd07d898890773fd2758564736f6c63430008110033",
  "devdoc": {
    "kind": "dev",
    "methods": {},
    "version": 1
  },
  "userdoc": {
    "kind": "user",
    "methods": {},
    "version": 1
  },
  "storageLayout": {
    "storage": [
      {
        "astId": 162,
        "contract": "contracts/SimpleDAO.sol:SimplDAO",
        "label": "_owner",
        "offset": 0,
        "slot": "0",
        "type": "t_address"
      },
      {
        "astId": 181,
        "contract": "contracts/SimpleDAO.sol:SimplDAO",
        "label": "proposalCount",
        "offset": 0,
        "slot": "1",
        "type": "t_uint256"
      },
      {
        "astId": 186,
        "contract": "contracts/SimpleDAO.sol:SimplDAO",
        "label": "ProposalData",
        "offset": 0,
        "slot": "2",
        "type": "t_mapping(t_uint256,t_struct(Proposal)179_storage)"
      }
    ],
    "types": {
      "t_address": {
        "encoding": "inplace",
        "label": "address",
        "numberOfBytes": "20"
      },
      "t_bool": {
        "encoding": "inplace",
        "label": "bool",
        "numberOfBytes": "1"
      },
      "t_mapping(t_uint256,t_struct(Proposal)179_storage)": {
        "encoding": "mapping",
        "key": "t_uint256",
        "label": "mapping(uint256 => struct SimplDAO.Proposal)",
        "numberOfBytes": "32",
        "value": "t_struct(Proposal)179_storage"
      },
      "t_string_storage": {
        "encoding": "bytes",
        "label": "string",
        "numberOfBytes": "32"
      },
      "t_struct(Proposal)179_storage": {
        "encoding": "inplace",
        "label": "struct SimplDAO.Proposal",
        "members": [
          {
            "astId": 164,
            "contract": "contracts/SimpleDAO.sol:SimplDAO",
            "label": "ProposalID",
            "offset": 0,
            "slot": "0",
            "type": "t_uint256"
          },
          {
            "astId": 166,
            "contract": "contracts/SimpleDAO.sol:SimplDAO",
            "label": "proposalTitle",
            "offset": 0,
            "slot": "1",
            "type": "t_string_storage"
          },
          {
            "astId": 168,
            "contract": "contracts/SimpleDAO.sol:SimplDAO",
            "label": "proposalDescription",
            "offset": 0,
            "slot": "2",
            "type": "t_string_storage"
          },
          {
            "astId": 170,
            "contract": "contracts/SimpleDAO.sol:SimplDAO",
            "label": "createdBy",
            "offset": 0,
            "slot": "3",
            "type": "t_address"
          },
          {
            "astId": 172,
            "contract": "contracts/SimpleDAO.sol:SimplDAO",
            "label": "yesVotes",
            "offset": 0,
            "slot": "4",
            "type": "t_uint256"
          },
          {
            "astId": 174,
            "contract": "contracts/SimpleDAO.sol:SimplDAO",
            "label": "noVotes",
            "offset": 0,
            "slot": "5",
            "type": "t_uint256"
          },
          {
            "astId": 176,
            "contract": "contracts/SimpleDAO.sol:SimplDAO",
            "label": "totalVotes",
            "offset": 0,
            "slot": "6",
            "type": "t_uint256"
          },
          {
            "astId": 178,
            "contract": "contracts/SimpleDAO.sol:SimplDAO",
            "label": "excecuted",
            "offset": 0,
            "slot": "7",
            "type": "t_bool"
          }
        ],
        "numberOfBytes": "256"
      },
      "t_uint256": {
        "encoding": "inplace",
        "label": "uint256",
        "numberOfBytes": "32"
      }
    }
  }
}