{
  "address": "0xC37e9aaa15aB7c422EdD3dd4bEFd4d84e7c8811d",
  "abi": [
    {
      "inputs": [],
      "stateMutability": "nonpayable",
      "type": "constructor"
    },
    {
      "anonymous": false,
      "inputs": [
        {
          "indexed": false,
          "internalType": "uint256",
          "name": "_id",
          "type": "uint256"
        },
        {
          "indexed": false,
          "internalType": "string",
          "name": "Title",
          "type": "string"
        },
        {
          "indexed": false,
          "internalType": "address",
          "name": "createdBy",
          "type": "address"
        }
      ],
      "name": "proposalCreated",
      "type": "event"
    },
    {
      "inputs": [
        {
          "internalType": "uint256",
          "name": "",
          "type": "uint256"
        }
      ],
      "name": "ProposalData",
      "outputs": [
        {
          "internalType": "uint256",
          "name": "ProposalID",
          "type": "uint256"
        },
        {
          "internalType": "string",
          "name": "proposalTitle",
          "type": "string"
        },
        {
          "internalType": "string",
          "name": "proposalDescription",
          "type": "string"
        },
        {
          "internalType": "address",
          "name": "createdBy",
          "type": "address"
        },
        {
          "internalType": "uint256",
          "name": "yesVotes",
          "type": "uint256"
        },
        {
          "internalType": "uint256",
          "name": "noVotes",
          "type": "uint256"
        },
        {
          "internalType": "uint256",
          "name": "totalVotes",
          "type": "uint256"
        },
        {
          "internalType": "bool",
          "name": "excecuted",
          "type": "bool"
        }
      ],
      "stateMutability": "view",
      "type": "function"
    },
    {
      "inputs": [
        {
          "internalType": "string",
          "name": "_Title",
          "type": "string"
        },
        {
          "internalType": "string",
          "name": "_Description",
          "type": "string"
        }
      ],
      "name": "createProposal",
      "outputs": [],
      "stateMutability": "nonpayable",
      "type": "function"
    },
    {
      "inputs": [
        {
          "internalType": "uint256",
          "name": "_proposalId",
          "type": "uint256"
        }
      ],
      "name": "exceuteProposal",
      "outputs": [],
      "stateMutability": "nonpayable",
      "type": "function"
    },
    {
      "inputs": [
        {
          "internalType": "address",
          "name": "nftAddress",
          "type": "address"
        }
      ],
      "name": "getBalance",
      "outputs": [
        {
          "internalType": "uint256",
          "name": "",
          "type": "uint256"
        }
      ],
      "stateMutability": "view",
      "type": "function"
    },
    {
      "inputs": [
        {
          "internalType": "uint256",
          "name": "_proposalId",
          "type": "uint256"
        }
      ],
      "name": "getProposal",
      "outputs": [
        {
          "components": [
            {
              "internalType": "uint256",
              "name": "ProposalID",
              "type": "uint256"
            },
            {
              "internalType": "string",
              "name": "proposalTitle",
              "type": "string"
            },
            {
              "internalType": "string",
              "name": "proposalDescription",
              "type": "string"
            },
            {
              "internalType": "address",
              "name": "createdBy",
              "type": "address"
            },
            {
              "internalType": "uint256",
              "name": "yesVotes",
              "type": "uint256"
            },
            {
              "internalType": "uint256",
              "name": "noVotes",
              "type": "uint256"
            },
            {
              "internalType": "uint256",
              "name": "totalVotes",
              "type": "uint256"
            },
            {
              "internalType": "bool",
              "name": "excecuted",
              "type": "bool"
            }
          ],
          "internalType": "struct SimplDAO.Proposal",
          "name": "",
          "type": "tuple"
        }
      ],
      "stateMutability": "view",
      "type": "function"
    },
    {
      "inputs": [],
      "name": "getProposalCount",
      "outputs": [
        {
          "internalType": "uint256",
          "name": "",
          "type": "uint256"
        }
      ],
      "stateMutability": "view",
      "type": "function"
    },
    {
      "inputs": [],
      "name": "proposalCount",
      "outputs": [
        {
          "internalType": "uint256",
          "name": "",
          "type": "uint256"
        }
      ],
      "stateMutability": "view",
      "type": "function"
    },
    {
      "inputs": [
        {
          "internalType": "uint256",
          "name": "_proposalId",
          "type": "uint256"
        },
        {
          "internalType": "enum SimplDAO.voteOption",
          "name": "vote",
          "type": "uint8"
        },
        {
          "internalType": "address",
          "name": "nftAddress",
          "type": "address"
        }
      ],
      "name": "voteProposal",
      "outputs": [],
      "stateMutability": "nonpayable",
      "type": "function"
    }
  ],
  "transactionHash": "0x23515d2178cad23659822c9fa89e44b04cfdbd309d028ebb617474a2164a9494",
  "args": [],
  "numDeployments": 4,
  "solcInputHash": "0873101f40743fceef96bc85a3f38423",
  "bytecode": "0x608060405234801561001057600080fd5b50336000806101000a81548173ffffffffffffffffffffffffffffffffffffffff021916908373ffffffffffffffffffffffffffffffffffffffff1602179055506118c1806100606000396000f3fe608060405234801561001057600080fd5b50600436106100885760003560e01c8063c7f758a81161005b578063c7f758a81461011a578063da35c6641461014a578063f8b2cb4f14610168578063fd0b8fe01461019857610088565b80630d6288a71461008d57806365e481e2146100c45780639160fabe146100e0578063c08cc02d146100fc575b600080fd5b6100a760048036038101906100a29190610c2b565b6101b4565b6040516100bb989796959493929190610d53565b60405180910390f35b6100de60048036038101906100d99190610f14565b610339565b005b6100fa60048036038101906100f59190610c2b565b610423565b005b610104610575565b6040516101119190610f8c565b60405180910390f35b610134600480360381019061012f9190610c2b565b61057f565b60405161014191906110d5565b60405180910390f35b610152610770565b60405161015f9190610f8c565b60405180910390f35b610182600480360381019061017d9190611123565b610776565b60405161018f9190610f8c565b60405180910390f35b6101b260048036038101906101ad9190611175565b61080c565b005b60026020528060005260406000206000915090508060000154908060010180546101dd906111f7565b80601f0160208091040260200160405190810160405280929190818152602001828054610209906111f7565b80156102565780601f1061022b57610100808354040283529160200191610256565b820191906000526020600020905b81548152906001019060200180831161023957829003601f168201915b50505050509080600201805461026b906111f7565b80601f0160208091040260200160405190810160405280929190818152602001828054610297906111f7565b80156102e45780601f106102b9576101008083540402835291602001916102e4565b820191906000526020600020905b8154815290600101906020018083116102c757829003601f168201915b5050505050908060030160009054906101000a900473ffffffffffffffffffffffffffffffffffffffff16908060040154908060050154908060060154908060070160009054906101000a900460ff16905088565b6000600260006001548152602001908152602001600020905060015481600001819055508281600101908161036e91906113d4565b508181600201908161038091906113d4565b50338160030160006101000a81548173ffffffffffffffffffffffffffffffffffffffff021916908373ffffffffffffffffffffffffffffffffffffffff160217905550600160008154809291906103d7906114d5565b91905055507f714aa979410b0af635e3d28a85a5b282ef1db3f1f2052962359cbdb2c53747d181600001548260010133604051610416939291906115a1565b60405180910390a1505050565b6000811015610467576040517f08c379a000000000000000000000000000000000000000000000000000000000815260040161045e9061162b565b60405180910390fd5b60006002600083815260200190815260200160002090508060030160009054906101000a900473ffffffffffffffffffffffffffffffffffffffff1673ffffffffffffffffffffffffffffffffffffffff163373ffffffffffffffffffffffffffffffffffffffff1614610510576040517f08c379a0000000000000000000000000000000000000000000000000000000008152600401610507906116bd565b60405180910390fd5b8060050154816004015411156105425760018160070160006101000a81548160ff021916908315150217905550610571565b8060050154816004015410156105705760008160070160006101000a81548160ff0219169083151502179055505b5b5050565b6000600154905090565b610587610b84565b60006002600084815260200190815260200160002060405180610100016040529081600082015481526020016001820180546105c2906111f7565b80601f01602080910402602001604051908101604052809291908181526020018280546105ee906111f7565b801561063b5780601f106106105761010080835404028352916020019161063b565b820191906000526020600020905b81548152906001019060200180831161061e57829003601f168201915b50505050508152602001600282018054610654906111f7565b80601f0160208091040260200160405190810160405280929190818152602001828054610680906111f7565b80156106cd5780601f106106a2576101008083540402835291602001916106cd565b820191906000526020600020905b8154815290600101906020018083116106b057829003601f168201915b505050505081526020016003820160009054906101000a900473ffffffffffffffffffffffffffffffffffffffff1673ffffffffffffffffffffffffffffffffffffffff1673ffffffffffffffffffffffffffffffffffffffff1681526020016004820154815260200160058201548152602001600682015481526020016007820160009054906101000a900460ff161515151581525050905080915050919050565b60015481565b6000670de0b6b3a76400008273ffffffffffffffffffffffffffffffffffffffff166370a08231336040518263ffffffff1660e01b81526004016107ba91906116dd565b602060405180830381865afa1580156107d7573d6000803e3d6000fd5b505050506040513d601f19601f820116820180604052508101906107fb919061170d565b6108059190611769565b9050919050565b6000831015610850576040517f08c379a00000000000000000000000000000000000000000000000000000000081526004016108479061162b565b60405180910390fd5b60006108906040518060400160405280600d81526020017f766f74696e6720626567696e7300000000000000000000000000000000000000815250610a29565b600060026000868152602001908152602001600020905060006108b284610776565b9050600081116108f7576040517f08c379a00000000000000000000000000000000000000000000000000000000081526004016108ee906117e6565b60405180910390fd5b6000600181111561090b5761090a611806565b5b85600181111561091e5761091d611806565b5b0361098e578082600401546109339190611835565b925082826004018190555061097c6040518060400160405280600d81526020017f766f74656420666f722079657300000000000000000000000000000000000000815250610a29565b6109898260040154610ac2565b610a21565b6001808111156109a1576109a0611806565b5b8560018111156109b4576109b3611806565b5b03610a20578082600501546109c99190611835565b9250828260050181905550610a126040518060400160405280600c81526020017f766f74656420666f72206e6f0000000000000000000000000000000000000000815250610a29565b610a1f8260050154610ac2565b5b5b505050505050565b610abf81604051602401610a3d9190611869565b6040516020818303038152906040527f41304fac000000000000000000000000000000000000000000000000000000007bffffffffffffffffffffffffffffffffffffffffffffffffffffffff19166020820180517bffffffffffffffffffffffffffffffffffffffffffffffffffffffff8381831617835250505050610b5b565b50565b610b5881604051602401610ad69190610f8c565b6040516020818303038152906040527ff82c50f1000000000000000000000000000000000000000000000000000000007bffffffffffffffffffffffffffffffffffffffffffffffffffffffff19166020820180517bffffffffffffffffffffffffffffffffffffffffffffffffffffffff8381831617835250505050610b5b565b50565b60008151905060006a636f6e736f6c652e6c6f679050602083016000808483855afa5050505050565b604051806101000160405280600081526020016060815260200160608152602001600073ffffffffffffffffffffffffffffffffffffffff1681526020016000815260200160008152602001600081526020016000151581525090565b6000604051905090565b600080fd5b600080fd5b6000819050919050565b610c0881610bf5565b8114610c1357600080fd5b50565b600081359050610c2581610bff565b92915050565b600060208284031215610c4157610c40610beb565b5b6000610c4f84828501610c16565b91505092915050565b610c6181610bf5565b82525050565b600081519050919050565b600082825260208201905092915050565b60005b83811015610ca1578082015181840152602081019050610c86565b60008484015250505050565b6000601f19601f8301169050919050565b6000610cc982610c67565b610cd38185610c72565b9350610ce3818560208601610c83565b610cec81610cad565b840191505092915050565b600073ffffffffffffffffffffffffffffffffffffffff82169050919050565b6000610d2282610cf7565b9050919050565b610d3281610d17565b82525050565b60008115159050919050565b610d4d81610d38565b82525050565b600061010082019050610d69600083018b610c58565b8181036020830152610d7b818a610cbe565b90508181036040830152610d8f8189610cbe565b9050610d9e6060830188610d29565b610dab6080830187610c58565b610db860a0830186610c58565b610dc560c0830185610c58565b610dd260e0830184610d44565b9998505050505050505050565b600080fd5b600080fd5b7f4e487b7100000000000000000000000000000000000000000000000000000000600052604160045260246000fd5b610e2182610cad565b810181811067ffffffffffffffff82111715610e4057610e3f610de9565b5b80604052505050565b6000610e53610be1565b9050610e5f8282610e18565b919050565b600067ffffffffffffffff821115610e7f57610e7e610de9565b5b610e8882610cad565b9050602081019050919050565b82818337600083830152505050565b6000610eb7610eb284610e64565b610e49565b905082815260208101848484011115610ed357610ed2610de4565b5b610ede848285610e95565b509392505050565b600082601f830112610efb57610efa610ddf565b5b8135610f0b848260208601610ea4565b91505092915050565b60008060408385031215610f2b57610f2a610beb565b5b600083013567ffffffffffffffff811115610f4957610f48610bf0565b5b610f5585828601610ee6565b925050602083013567ffffffffffffffff811115610f7657610f75610bf0565b5b610f8285828601610ee6565b9150509250929050565b6000602082019050610fa16000830184610c58565b92915050565b610fb081610bf5565b82525050565b600082825260208201905092915050565b6000610fd282610c67565b610fdc8185610fb6565b9350610fec818560208601610c83565b610ff581610cad565b840191505092915050565b61100981610d17565b82525050565b61101881610d38565b82525050565b6000610100830160008301516110376000860182610fa7565b506020830151848203602086015261104f8282610fc7565b915050604083015184820360408601526110698282610fc7565b915050606083015161107e6060860182611000565b5060808301516110916080860182610fa7565b5060a08301516110a460a0860182610fa7565b5060c08301516110b760c0860182610fa7565b5060e08301516110ca60e086018261100f565b508091505092915050565b600060208201905081810360008301526110ef818461101e565b905092915050565b61110081610d17565b811461110b57600080fd5b50565b60008135905061111d816110f7565b92915050565b60006020828403121561113957611138610beb565b5b60006111478482850161110e565b91505092915050565b6002811061115d57600080fd5b50565b60008135905061116f81611150565b92915050565b60008060006060848603121561118e5761118d610beb565b5b600061119c86828701610c16565b93505060206111ad86828701611160565b92505060406111be8682870161110e565b9150509250925092565b7f4e487b7100000000000000000000000000000000000000000000000000000000600052602260045260246000fd5b6000600282049050600182168061120f57607f821691505b602082108103611222576112216111c8565b5b50919050565b60008190508160005260206000209050919050565b60006020601f8301049050919050565b600082821b905092915050565b60006008830261128a7fffffffffffffffffffffffffffffffffffffffffffffffffffffffffffffffff8261124d565b611294868361124d565b95508019841693508086168417925050509392505050565b6000819050919050565b60006112d16112cc6112c784610bf5565b6112ac565b610bf5565b9050919050565b6000819050919050565b6112eb836112b6565b6112ff6112f7826112d8565b84845461125a565b825550505050565b600090565b611314611307565b61131f8184846112e2565b505050565b5b818110156113435761133860008261130c565b600181019050611325565b5050565b601f8211156113885761135981611228565b6113628461123d565b81016020851015611371578190505b61138561137d8561123d565b830182611324565b50505b505050565b600082821c905092915050565b60006113ab6000198460080261138d565b1980831691505092915050565b60006113c4838361139a565b9150826002028217905092915050565b6113dd82610c67565b67ffffffffffffffff8111156113f6576113f5610de9565b5b61140082546111f7565b61140b828285611347565b600060209050601f83116001811461143e576000841561142c578287015190505b61143685826113b8565b86555061149e565b601f19841661144c86611228565b60005b828110156114745784890151825560018201915060208501945060208101905061144f565b86831015611491578489015161148d601f89168261139a565b8355505b6001600288020188555050505b505050505050565b7f4e487b7100000000000000000000000000000000000000000000000000000000600052601160045260246000fd5b60006114e082610bf5565b91507fffffffffffffffffffffffffffffffffffffffffffffffffffffffffffffffff8203611512576115116114a6565b5b600182019050919050565b6000815461152a816111f7565b6115348186610c72565b9450600182166000811461154f576001811461156557611598565b60ff198316865281151560200286019350611598565b61156e85611228565b60005b8381101561159057815481890152600182019150602081019050611571565b808801955050505b50505092915050565b60006060820190506115b66000830186610c58565b81810360208301526115c8818561151d565b90506115d76040830184610d29565b949350505050565b7f50726f706f73616c20646f65736e277420657869737400000000000000000000600082015250565b6000611615601683610c72565b9150611620826115df565b602082019050919050565b6000602082019050818103600083015261164481611608565b9050919050565b7f746865206f776e6572206f6e6c792063616e206578636563757465207468652060008201527f70726f706f73616c000000000000000000000000000000000000000000000000602082015250565b60006116a7602883610c72565b91506116b28261164b565b604082019050919050565b600060208201905081810360008301526116d68161169a565b9050919050565b60006020820190506116f26000830184610d29565b92915050565b60008151905061170781610bff565b92915050565b60006020828403121561172357611722610beb565b5b6000611731848285016116f8565b91505092915050565b7f4e487b7100000000000000000000000000000000000000000000000000000000600052601260045260246000fd5b600061177482610bf5565b915061177f83610bf5565b92508261178f5761178e61173a565b5b828204905092915050565b7f546865207573657220646f65736e742773206f776e20616e79204e4654000000600082015250565b60006117d0601d83610c72565b91506117db8261179a565b602082019050919050565b600060208201905081810360008301526117ff816117c3565b9050919050565b7f4e487b7100000000000000000000000000000000000000000000000000000000600052602160045260246000fd5b600061184082610bf5565b915061184b83610bf5565b9250828201905080821115611863576118626114a6565b5b92915050565b600060208201905081810360008301526118838184610cbe565b90509291505056fea2646970667358221220d41464484c331ef3d7f3b832eea9ee26a691c80ded4e5ebf28d0f349435ea66264736f6c63430008110033",
  "devdoc": {
    "kind": "dev",
    "methods": {},
    "version": 1
  },
  "userdoc": {
    "kind": "user",
    "methods": {},
    "version": 1
  },
  "storageLayout": {
    "storage": [
      {
        "astId": 162,
        "contract": "contracts/SimpleDAO.sol:SimplDAO",
        "label": "_owner",
        "offset": 0,
        "slot": "0",
        "type": "t_address"
      },
      {
        "astId": 181,
        "contract": "contracts/SimpleDAO.sol:SimplDAO",
        "label": "proposalCount",
        "offset": 0,
        "slot": "1",
        "type": "t_uint256"
      },
      {
        "astId": 186,
        "contract": "contracts/SimpleDAO.sol:SimplDAO",
        "label": "ProposalData",
        "offset": 0,
        "slot": "2",
        "type": "t_mapping(t_uint256,t_struct(Proposal)179_storage)"
      }
    ],
    "types": {
      "t_address": {
        "encoding": "inplace",
        "label": "address",
        "numberOfBytes": "20"
      },
      "t_bool": {
        "encoding": "inplace",
        "label": "bool",
        "numberOfBytes": "1"
      },
      "t_mapping(t_uint256,t_struct(Proposal)179_storage)": {
        "encoding": "mapping",
        "key": "t_uint256",
        "label": "mapping(uint256 => struct SimplDAO.Proposal)",
        "numberOfBytes": "32",
        "value": "t_struct(Proposal)179_storage"
      },
      "t_string_storage": {
        "encoding": "bytes",
        "label": "string",
        "numberOfBytes": "32"
      },
      "t_struct(Proposal)179_storage": {
        "encoding": "inplace",
        "label": "struct SimplDAO.Proposal",
        "members": [
          {
            "astId": 164,
            "contract": "contracts/SimpleDAO.sol:SimplDAO",
            "label": "ProposalID",
            "offset": 0,
            "slot": "0",
            "type": "t_uint256"
          },
          {
            "astId": 166,
            "contract": "contracts/SimpleDAO.sol:SimplDAO",
            "label": "proposalTitle",
            "offset": 0,
            "slot": "1",
            "type": "t_string_storage"
          },
          {
            "astId": 168,
            "contract": "contracts/SimpleDAO.sol:SimplDAO",
            "label": "proposalDescription",
            "offset": 0,
            "slot": "2",
            "type": "t_string_storage"
          },
          {
            "astId": 170,
            "contract": "contracts/SimpleDAO.sol:SimplDAO",
            "label": "createdBy",
            "offset": 0,
            "slot": "3",
            "type": "t_address"
          },
          {
            "astId": 172,
            "contract": "contracts/SimpleDAO.sol:SimplDAO",
            "label": "yesVotes",
            "offset": 0,
            "slot": "4",
            "type": "t_uint256"
          },
          {
            "astId": 174,
            "contract": "contracts/SimpleDAO.sol:SimplDAO",
            "label": "noVotes",
            "offset": 0,
            "slot": "5",
            "type": "t_uint256"
          },
          {
            "astId": 176,
            "contract": "contracts/SimpleDAO.sol:SimplDAO",
            "label": "totalVotes",
            "offset": 0,
            "slot": "6",
            "type": "t_uint256"
          },
          {
            "astId": 178,
            "contract": "contracts/SimpleDAO.sol:SimplDAO",
            "label": "excecuted",
            "offset": 0,
            "slot": "7",
            "type": "t_bool"
          }
        ],
        "numberOfBytes": "256"
      },
      "t_uint256": {
        "encoding": "inplace",
        "label": "uint256",
        "numberOfBytes": "32"
      }
    }
  }
}