{
  "address": "0xf98C5308F4eb5ECCa7DA469e261fA5a52069fa34",
  "abi": [
    {
      "inputs": [],
      "stateMutability": "nonpayable",
      "type": "constructor"
    },
    {
      "anonymous": false,
      "inputs": [
        {
          "indexed": false,
          "internalType": "uint256",
          "name": "_id",
          "type": "uint256"
        },
        {
          "indexed": false,
          "internalType": "string",
          "name": "Title",
          "type": "string"
        },
        {
          "indexed": false,
          "internalType": "address",
          "name": "createdBy",
          "type": "address"
        }
      ],
      "name": "proposalCreated",
      "type": "event"
    },
    {
      "inputs": [
        {
          "internalType": "uint256",
          "name": "",
          "type": "uint256"
        }
      ],
      "name": "ProposalData",
      "outputs": [
        {
          "internalType": "uint256",
          "name": "ProposalID",
          "type": "uint256"
        },
        {
          "internalType": "string",
          "name": "proposalTitle",
          "type": "string"
        },
        {
          "internalType": "string",
          "name": "proposalDescription",
          "type": "string"
        },
        {
          "internalType": "address",
          "name": "createdBy",
          "type": "address"
        },
        {
          "internalType": "uint256",
          "name": "yesVotes",
          "type": "uint256"
        },
        {
          "internalType": "uint256",
          "name": "noVotes",
          "type": "uint256"
        },
        {
          "internalType": "uint256",
          "name": "totalVotes",
          "type": "uint256"
        },
        {
          "internalType": "bool",
          "name": "excecuted",
          "type": "bool"
        }
      ],
      "stateMutability": "view",
      "type": "function"
    },
    {
      "inputs": [
        {
          "internalType": "string",
          "name": "_Title",
          "type": "string"
        },
        {
          "internalType": "string",
          "name": "_Description",
          "type": "string"
        }
      ],
      "name": "createProposal",
      "outputs": [],
      "stateMutability": "nonpayable",
      "type": "function"
    },
    {
      "inputs": [
        {
          "internalType": "uint256",
          "name": "_proposalId",
          "type": "uint256"
        }
      ],
      "name": "exceuteProposal",
      "outputs": [],
      "stateMutability": "view",
      "type": "function"
    },
    {
      "inputs": [
        {
          "internalType": "uint256",
          "name": "_proposalId",
          "type": "uint256"
        }
      ],
      "name": "getProposal",
      "outputs": [
        {
          "components": [
            {
              "internalType": "uint256",
              "name": "ProposalID",
              "type": "uint256"
            },
            {
              "internalType": "string",
              "name": "proposalTitle",
              "type": "string"
            },
            {
              "internalType": "string",
              "name": "proposalDescription",
              "type": "string"
            },
            {
              "internalType": "address",
              "name": "createdBy",
              "type": "address"
            },
            {
              "internalType": "uint256",
              "name": "yesVotes",
              "type": "uint256"
            },
            {
              "internalType": "uint256",
              "name": "noVotes",
              "type": "uint256"
            },
            {
              "internalType": "uint256",
              "name": "totalVotes",
              "type": "uint256"
            },
            {
              "internalType": "bool",
              "name": "excecuted",
              "type": "bool"
            }
          ],
          "internalType": "struct SimplDAO.Proposal",
          "name": "",
          "type": "tuple"
        }
      ],
      "stateMutability": "view",
      "type": "function"
    },
    {
      "inputs": [],
      "name": "getProposalCount",
      "outputs": [
        {
          "internalType": "uint256",
          "name": "",
          "type": "uint256"
        }
      ],
      "stateMutability": "view",
      "type": "function"
    },
    {
      "inputs": [],
      "name": "proposalCount",
      "outputs": [
        {
          "internalType": "uint256",
          "name": "",
          "type": "uint256"
        }
      ],
      "stateMutability": "view",
      "type": "function"
    },
    {
      "inputs": [
        {
          "internalType": "uint256",
          "name": "_proposalId",
          "type": "uint256"
        },
        {
          "internalType": "enum SimplDAO.voteOption",
          "name": "vote",
          "type": "uint8"
        },
        {
          "internalType": "address",
          "name": "nftAddress",
          "type": "address"
        }
      ],
      "name": "voteProposal",
      "outputs": [],
      "stateMutability": "view",
      "type": "function"
    }
  ],
  "transactionHash": "0x4c8c94626ccb466ce04262e31d8b153a1df7c45f89d0806e7d45c7c6f2b8f3f4",
  "args": [],
  "numDeployments": 1,
  "solcInputHash": "09a45f9d6ab7d1a683d2900c695ba184",
  "bytecode": "0x608060405234801561001057600080fd5b50336000806101000a81548173ffffffffffffffffffffffffffffffffffffffff021916908373ffffffffffffffffffffffffffffffffffffffff1602179055506118b9806100606000396000f3fe608060405234801561001057600080fd5b506004361061007d5760003560e01c8063c08cc02d1161005b578063c08cc02d146100f1578063c7f758a81461010f578063da35c6641461013f578063fd0b8fe01461015d5761007d565b80630d6288a71461008257806365e481e2146100b95780639160fabe146100d5575b600080fd5b61009c60048036038101906100979190610d06565b610179565b6040516100b0989796959493929190610e2e565b60405180910390f35b6100d360048036038101906100ce9190610fef565b6102fe565b005b6100ef60048036038101906100ea9190610d06565b6103e8565b005b6100f96106ca565b6040516101069190611067565b60405180910390f35b61012960048036038101906101249190610d06565b6106d4565b60405161013691906111b0565b60405180910390f35b6101476108c5565b6040516101549190611067565b60405180910390f35b61017760048036038101906101729190611223565b6108cb565b005b60026020528060005260406000206000915090508060000154908060010180546101a2906112a5565b80601f01602080910402602001604051908101604052809291908181526020018280546101ce906112a5565b801561021b5780601f106101f05761010080835404028352916020019161021b565b820191906000526020600020905b8154815290600101906020018083116101fe57829003601f168201915b505050505090806002018054610230906112a5565b80601f016020809104026020016040519081016040528092919081815260200182805461025c906112a5565b80156102a95780601f1061027e576101008083540402835291602001916102a9565b820191906000526020600020905b81548152906001019060200180831161028c57829003601f168201915b5050505050908060030160009054906101000a900473ffffffffffffffffffffffffffffffffffffffff16908060040154908060050154908060060154908060070160009054906101000a900460ff16905088565b600060026000600154815260200190815260200160002090506001548160000181905550828160010190816103339190611482565b50818160020190816103459190611482565b50338160030160006101000a81548173ffffffffffffffffffffffffffffffffffffffff021916908373ffffffffffffffffffffffffffffffffffffffff1602179055506001600081548092919061039c90611583565b91905055507f714aa979410b0af635e3d28a85a5b282ef1db3f1f2052962359cbdb2c53747d1816000015482600101336040516103db9392919061164f565b60405180910390a1505050565b6000811161042b576040517f08c379a0000000000000000000000000000000000000000000000000000000008152600401610422906116d9565b60405180910390fd5b6000600260008381526020019081526020016000206040518061010001604052908160008201548152602001600182018054610466906112a5565b80601f0160208091040260200160405190810160405280929190818152602001828054610492906112a5565b80156104df5780601f106104b4576101008083540402835291602001916104df565b820191906000526020600020905b8154815290600101906020018083116104c257829003601f168201915b505050505081526020016002820180546104f8906112a5565b80601f0160208091040260200160405190810160405280929190818152602001828054610524906112a5565b80156105715780601f1061054657610100808354040283529160200191610571565b820191906000526020600020905b81548152906001019060200180831161055457829003601f168201915b505050505081526020016003820160009054906101000a900473ffffffffffffffffffffffffffffffffffffffff1673ffffffffffffffffffffffffffffffffffffffff1673ffffffffffffffffffffffffffffffffffffffff1681526020016004820154815260200160058201548152602001600682015481526020016007820160009054906101000a900460ff1615151515815250509050806060015173ffffffffffffffffffffffffffffffffffffffff163373ffffffffffffffffffffffffffffffffffffffff161461067d576040517f08c379a00000000000000000000000000000000000000000000000000000000081526004016106749061176b565b60405180910390fd5b8060a00151816080015111156106a35760018160e00190151590811515815250506106c6565b8060a00151816080015110156106c55760008160e00190151590811515815250505b5b5050565b6000600154905090565b6106dc610c5f565b6000600260008481526020019081526020016000206040518061010001604052908160008201548152602001600182018054610717906112a5565b80601f0160208091040260200160405190810160405280929190818152602001828054610743906112a5565b80156107905780601f1061076557610100808354040283529160200191610790565b820191906000526020600020905b81548152906001019060200180831161077357829003601f168201915b505050505081526020016002820180546107a9906112a5565b80601f01602080910402602001604051908101604052809291908181526020018280546107d5906112a5565b80156108225780601f106107f757610100808354040283529160200191610822565b820191906000526020600020905b81548152906001019060200180831161080557829003601f168201915b505050505081526020016003820160009054906101000a900473ffffffffffffffffffffffffffffffffffffffff1673ffffffffffffffffffffffffffffffffffffffff1673ffffffffffffffffffffffffffffffffffffffff1681526020016004820154815260200160058201548152602001600682015481526020016007820160009054906101000a900460ff161515151581525050905080915050919050565b60015481565b6000831161090e576040517f08c379a0000000000000000000000000000000000000000000000000000000008152600401610905906116d9565b60405180910390fd5b60008173ffffffffffffffffffffffffffffffffffffffff166370a08231336040518263ffffffff1660e01b8152600401610949919061178b565b602060405180830381865afa158015610966573d6000803e3d6000fd5b505050506040513d601f19601f8201168201806040525081019061098a91906117bb565b9050600081116109cf576040517f08c379a00000000000000000000000000000000000000000000000000000000081526004016109c690611834565b60405180910390fd5b6000600260008681526020019081526020016000206040518061010001604052908160008201548152602001600182018054610a0a906112a5565b80601f0160208091040260200160405190810160405280929190818152602001828054610a36906112a5565b8015610a835780601f10610a5857610100808354040283529160200191610a83565b820191906000526020600020905b815481529060010190602001808311610a6657829003601f168201915b50505050508152602001600282018054610a9c906112a5565b80601f0160208091040260200160405190810160405280929190818152602001828054610ac8906112a5565b8015610b155780601f10610aea57610100808354040283529160200191610b15565b820191906000526020600020905b815481529060010190602001808311610af857829003601f168201915b505050505081526020016003820160009054906101000a900473ffffffffffffffffffffffffffffffffffffffff1673ffffffffffffffffffffffffffffffffffffffff1673ffffffffffffffffffffffffffffffffffffffff1681526020016004820154815260200160058201548152602001600682015481526020016007820160009054906101000a900460ff161515151581525050905060005b82811015610c575760006001811115610bce57610bcd611854565b5b856001811115610be157610be0611854565b5b03610c0157816080018051809190610bf890611583565b81525050610c44565b600180811115610c1457610c13611854565b5b856001811115610c2757610c26611854565b5b03610c43578160a0018051809190610c3e90611583565b815250505b5b8080610c4f90611583565b915050610bb2565b505050505050565b604051806101000160405280600081526020016060815260200160608152602001600073ffffffffffffffffffffffffffffffffffffffff1681526020016000815260200160008152602001600081526020016000151581525090565b6000604051905090565b600080fd5b600080fd5b6000819050919050565b610ce381610cd0565b8114610cee57600080fd5b50565b600081359050610d0081610cda565b92915050565b600060208284031215610d1c57610d1b610cc6565b5b6000610d2a84828501610cf1565b91505092915050565b610d3c81610cd0565b82525050565b600081519050919050565b600082825260208201905092915050565b60005b83811015610d7c578082015181840152602081019050610d61565b60008484015250505050565b6000601f19601f8301169050919050565b6000610da482610d42565b610dae8185610d4d565b9350610dbe818560208601610d5e565b610dc781610d88565b840191505092915050565b600073ffffffffffffffffffffffffffffffffffffffff82169050919050565b6000610dfd82610dd2565b9050919050565b610e0d81610df2565b82525050565b60008115159050919050565b610e2881610e13565b82525050565b600061010082019050610e44600083018b610d33565b8181036020830152610e56818a610d99565b90508181036040830152610e6a8189610d99565b9050610e796060830188610e04565b610e866080830187610d33565b610e9360a0830186610d33565b610ea060c0830185610d33565b610ead60e0830184610e1f565b9998505050505050505050565b600080fd5b600080fd5b7f4e487b7100000000000000000000000000000000000000000000000000000000600052604160045260246000fd5b610efc82610d88565b810181811067ffffffffffffffff82111715610f1b57610f1a610ec4565b5b80604052505050565b6000610f2e610cbc565b9050610f3a8282610ef3565b919050565b600067ffffffffffffffff821115610f5a57610f59610ec4565b5b610f6382610d88565b9050602081019050919050565b82818337600083830152505050565b6000610f92610f8d84610f3f565b610f24565b905082815260208101848484011115610fae57610fad610ebf565b5b610fb9848285610f70565b509392505050565b600082601f830112610fd657610fd5610eba565b5b8135610fe6848260208601610f7f565b91505092915050565b6000806040838503121561100657611005610cc6565b5b600083013567ffffffffffffffff81111561102457611023610ccb565b5b61103085828601610fc1565b925050602083013567ffffffffffffffff81111561105157611050610ccb565b5b61105d85828601610fc1565b9150509250929050565b600060208201905061107c6000830184610d33565b92915050565b61108b81610cd0565b82525050565b600082825260208201905092915050565b60006110ad82610d42565b6110b78185611091565b93506110c7818560208601610d5e565b6110d081610d88565b840191505092915050565b6110e481610df2565b82525050565b6110f381610e13565b82525050565b6000610100830160008301516111126000860182611082565b506020830151848203602086015261112a82826110a2565b9150506040830151848203604086015261114482826110a2565b915050606083015161115960608601826110db565b50608083015161116c6080860182611082565b5060a083015161117f60a0860182611082565b5060c083015161119260c0860182611082565b5060e08301516111a560e08601826110ea565b508091505092915050565b600060208201905081810360008301526111ca81846110f9565b905092915050565b600281106111df57600080fd5b50565b6000813590506111f1816111d2565b92915050565b61120081610df2565b811461120b57600080fd5b50565b60008135905061121d816111f7565b92915050565b60008060006060848603121561123c5761123b610cc6565b5b600061124a86828701610cf1565b935050602061125b868287016111e2565b925050604061126c8682870161120e565b9150509250925092565b7f4e487b7100000000000000000000000000000000000000000000000000000000600052602260045260246000fd5b600060028204905060018216806112bd57607f821691505b6020821081036112d0576112cf611276565b5b50919050565b60008190508160005260206000209050919050565b60006020601f8301049050919050565b600082821b905092915050565b6000600883026113387fffffffffffffffffffffffffffffffffffffffffffffffffffffffffffffffff826112fb565b61134286836112fb565b95508019841693508086168417925050509392505050565b6000819050919050565b600061137f61137a61137584610cd0565b61135a565b610cd0565b9050919050565b6000819050919050565b61139983611364565b6113ad6113a582611386565b848454611308565b825550505050565b600090565b6113c26113b5565b6113cd818484611390565b505050565b5b818110156113f1576113e66000826113ba565b6001810190506113d3565b5050565b601f82111561143657611407816112d6565b611410846112eb565b8101602085101561141f578190505b61143361142b856112eb565b8301826113d2565b50505b505050565b600082821c905092915050565b60006114596000198460080261143b565b1980831691505092915050565b60006114728383611448565b9150826002028217905092915050565b61148b82610d42565b67ffffffffffffffff8111156114a4576114a3610ec4565b5b6114ae82546112a5565b6114b98282856113f5565b600060209050601f8311600181146114ec57600084156114da578287015190505b6114e48582611466565b86555061154c565b601f1984166114fa866112d6565b60005b82811015611522578489015182556001820191506020850194506020810190506114fd565b8683101561153f578489015161153b601f891682611448565b8355505b6001600288020188555050505b505050505050565b7f4e487b7100000000000000000000000000000000000000000000000000000000600052601160045260246000fd5b600061158e82610cd0565b91507fffffffffffffffffffffffffffffffffffffffffffffffffffffffffffffffff82036115c0576115bf611554565b5b600182019050919050565b600081546115d8816112a5565b6115e28186610d4d565b945060018216600081146115fd576001811461161357611646565b60ff198316865281151560200286019350611646565b61161c856112d6565b60005b8381101561163e5781548189015260018201915060208101905061161f565b808801955050505b50505092915050565b60006060820190506116646000830186610d33565b818103602083015261167681856115cb565b90506116856040830184610e04565b949350505050565b7f50726f706f73616c20646f65736e277420657869737400000000000000000000600082015250565b60006116c3601683610d4d565b91506116ce8261168d565b602082019050919050565b600060208201905081810360008301526116f2816116b6565b9050919050565b7f746865206f776e6572206f6e6c792063616e206578636563757465207468652060008201527f70726f706f73616c000000000000000000000000000000000000000000000000602082015250565b6000611755602883610d4d565b9150611760826116f9565b604082019050919050565b6000602082019050818103600083015261178481611748565b9050919050565b60006020820190506117a06000830184610e04565b92915050565b6000815190506117b581610cda565b92915050565b6000602082840312156117d1576117d0610cc6565b5b60006117df848285016117a6565b91505092915050565b7f546865207573657220646f65736e742773206f776e20616e79204e4654000000600082015250565b600061181e601d83610d4d565b9150611829826117e8565b602082019050919050565b6000602082019050818103600083015261184d81611811565b9050919050565b7f4e487b7100000000000000000000000000000000000000000000000000000000600052602160045260246000fdfea26469706673582212206289260c0eaa5c686b21b85fa3cf412763c0709d07c31949ffbcc5cbc47c125c64736f6c63430008110033",
  "devdoc": {
    "kind": "dev",
    "methods": {},
    "version": 1
  },
  "userdoc": {
    "kind": "user",
    "methods": {},
    "version": 1
  },
  "storageLayout": {
    "storage": [
      {
        "astId": 796,
        "contract": "contracts/SimpleDAO.sol:SimplDAO",
        "label": "_owner",
        "offset": 0,
        "slot": "0",
        "type": "t_address"
      },
      {
        "astId": 815,
        "contract": "contracts/SimpleDAO.sol:SimplDAO",
        "label": "proposalCount",
        "offset": 0,
        "slot": "1",
        "type": "t_uint256"
      },
      {
        "astId": 820,
        "contract": "contracts/SimpleDAO.sol:SimplDAO",
        "label": "ProposalData",
        "offset": 0,
        "slot": "2",
        "type": "t_mapping(t_uint256,t_struct(Proposal)813_storage)"
      }
    ],
    "types": {
      "t_address": {
        "encoding": "inplace",
        "label": "address",
        "numberOfBytes": "20"
      },
      "t_bool": {
        "encoding": "inplace",
        "label": "bool",
        "numberOfBytes": "1"
      },
      "t_mapping(t_uint256,t_struct(Proposal)813_storage)": {
        "encoding": "mapping",
        "key": "t_uint256",
        "label": "mapping(uint256 => struct SimplDAO.Proposal)",
        "numberOfBytes": "32",
        "value": "t_struct(Proposal)813_storage"
      },
      "t_string_storage": {
        "encoding": "bytes",
        "label": "string",
        "numberOfBytes": "32"
      },
      "t_struct(Proposal)813_storage": {
        "encoding": "inplace",
        "label": "struct SimplDAO.Proposal",
        "members": [
          {
            "astId": 798,
            "contract": "contracts/SimpleDAO.sol:SimplDAO",
            "label": "ProposalID",
            "offset": 0,
            "slot": "0",
            "type": "t_uint256"
          },
          {
            "astId": 800,
            "contract": "contracts/SimpleDAO.sol:SimplDAO",
            "label": "proposalTitle",
            "offset": 0,
            "slot": "1",
            "type": "t_string_storage"
          },
          {
            "astId": 802,
            "contract": "contracts/SimpleDAO.sol:SimplDAO",
            "label": "proposalDescription",
            "offset": 0,
            "slot": "2",
            "type": "t_string_storage"
          },
          {
            "astId": 804,
            "contract": "contracts/SimpleDAO.sol:SimplDAO",
            "label": "createdBy",
            "offset": 0,
            "slot": "3",
            "type": "t_address"
          },
          {
            "astId": 806,
            "contract": "contracts/SimpleDAO.sol:SimplDAO",
            "label": "yesVotes",
            "offset": 0,
            "slot": "4",
            "type": "t_uint256"
          },
          {
            "astId": 808,
            "contract": "contracts/SimpleDAO.sol:SimplDAO",
            "label": "noVotes",
            "offset": 0,
            "slot": "5",
            "type": "t_uint256"
          },
          {
            "astId": 810,
            "contract": "contracts/SimpleDAO.sol:SimplDAO",
            "label": "totalVotes",
            "offset": 0,
            "slot": "6",
            "type": "t_uint256"
          },
          {
            "astId": 812,
            "contract": "contracts/SimpleDAO.sol:SimplDAO",
            "label": "excecuted",
            "offset": 0,
            "slot": "7",
            "type": "t_bool"
          }
        ],
        "numberOfBytes": "256"
      },
      "t_uint256": {
        "encoding": "inplace",
        "label": "uint256",
        "numberOfBytes": "32"
      }
    }
  }
}