{
  "address": "0xB704DFE6Bc34686072203Aa91750548Fa798edEe",
  "abi": [
    {
      "inputs": [],
      "stateMutability": "nonpayable",
      "type": "constructor"
    },
    {
      "anonymous": false,
      "inputs": [
        {
          "indexed": true,
          "internalType": "address",
          "name": "owner",
          "type": "address"
        },
        {
          "indexed": true,
          "internalType": "address",
          "name": "spender",
          "type": "address"
        },
        {
          "indexed": false,
          "internalType": "uint256",
          "name": "value",
          "type": "uint256"
        }
      ],
      "name": "Approval",
      "type": "event"
    },
    {
      "anonymous": false,
      "inputs": [
        {
          "indexed": true,
          "internalType": "address",
          "name": "from",
          "type": "address"
        },
        {
          "indexed": true,
          "internalType": "address",
          "name": "to",
          "type": "address"
        },
        {
          "indexed": false,
          "internalType": "uint256",
          "name": "value",
          "type": "uint256"
        }
      ],
      "name": "Transfer",
      "type": "event"
    },
    {
      "inputs": [
        {
          "internalType": "address",
          "name": "owner",
          "type": "address"
        },
        {
          "internalType": "address",
          "name": "spender",
          "type": "address"
        }
      ],
      "name": "allowance",
      "outputs": [
        {
          "internalType": "uint256",
          "name": "",
          "type": "uint256"
        }
      ],
      "stateMutability": "view",
      "type": "function"
    },
    {
      "inputs": [
        {
          "internalType": "address",
          "name": "spender",
          "type": "address"
        },
        {
          "internalType": "uint256",
          "name": "amount",
          "type": "uint256"
        }
      ],
      "name": "approve",
      "outputs": [
        {
          "internalType": "bool",
          "name": "",
          "type": "bool"
        }
      ],
      "stateMutability": "nonpayable",
      "type": "function"
    },
    {
      "inputs": [
        {
          "internalType": "address",
          "name": "account",
          "type": "address"
        }
      ],
      "name": "balanceOf",
      "outputs": [
        {
          "internalType": "uint256",
          "name": "",
          "type": "uint256"
        }
      ],
      "stateMutability": "view",
      "type": "function"
    },
    {
      "inputs": [],
      "name": "decimals",
      "outputs": [
        {
          "internalType": "uint8",
          "name": "",
          "type": "uint8"
        }
      ],
      "stateMutability": "view",
      "type": "function"
    },
    {
      "inputs": [
        {
          "internalType": "address",
          "name": "spender",
          "type": "address"
        },
        {
          "internalType": "uint256",
          "name": "subtractedValue",
          "type": "uint256"
        }
      ],
      "name": "decreaseAllowance",
      "outputs": [
        {
          "internalType": "bool",
          "name": "",
          "type": "bool"
        }
      ],
      "stateMutability": "nonpayable",
      "type": "function"
    },
    {
      "inputs": [
        {
          "internalType": "address",
          "name": "spender",
          "type": "address"
        },
        {
          "internalType": "uint256",
          "name": "addedValue",
          "type": "uint256"
        }
      ],
      "name": "increaseAllowance",
      "outputs": [
        {
          "internalType": "bool",
          "name": "",
          "type": "bool"
        }
      ],
      "stateMutability": "nonpayable",
      "type": "function"
    },
    {
      "inputs": [
        {
          "internalType": "uint256",
          "name": "supply",
          "type": "uint256"
        }
      ],
      "name": "mint",
      "outputs": [],
      "stateMutability": "nonpayable",
      "type": "function"
    },
    {
      "inputs": [],
      "name": "name",
      "outputs": [
        {
          "internalType": "string",
          "name": "",
          "type": "string"
        }
      ],
      "stateMutability": "view",
      "type": "function"
    },
    {
      "inputs": [],
      "name": "owner",
      "outputs": [
        {
          "internalType": "address",
          "name": "",
          "type": "address"
        }
      ],
      "stateMutability": "view",
      "type": "function"
    },
    {
      "inputs": [],
      "name": "symbol",
      "outputs": [
        {
          "internalType": "string",
          "name": "",
          "type": "string"
        }
      ],
      "stateMutability": "view",
      "type": "function"
    },
    {
      "inputs": [],
      "name": "totalSupply",
      "outputs": [
        {
          "internalType": "uint256",
          "name": "",
          "type": "uint256"
        }
      ],
      "stateMutability": "view",
      "type": "function"
    },
    {
      "inputs": [
        {
          "internalType": "address",
          "name": "to",
          "type": "address"
        },
        {
          "internalType": "uint256",
          "name": "amount",
          "type": "uint256"
        }
      ],
      "name": "transfer",
      "outputs": [
        {
          "internalType": "bool",
          "name": "",
          "type": "bool"
        }
      ],
      "stateMutability": "nonpayable",
      "type": "function"
    },
    {
      "inputs": [
        {
          "internalType": "address",
          "name": "from",
          "type": "address"
        },
        {
          "internalType": "address",
          "name": "to",
          "type": "address"
        },
        {
          "internalType": "uint256",
          "name": "amount",
          "type": "uint256"
        }
      ],
      "name": "transferFrom",
      "outputs": [
        {
          "internalType": "bool",
          "name": "",
          "type": "bool"
        }
      ],
      "stateMutability": "nonpayable",
      "type": "function"
    }
  ],
  "transactionHash": "0xe317824d4e8c78a873c920e680b560284ae14ef8685d61cde3578620b3237893",
  "args": [],
  "numDeployments": 1,
  "solcInputHash": "09a45f9d6ab7d1a683d2900c695ba184",
  "bytecode": "0x60a06040523480156200001157600080fd5b506040518060400160405280600881526020017f53696d706c44414f0000000000000000000000000000000000000000000000008152506040518060400160405280600481526020017f5344414f0000000000000000000000000000000000000000000000000000000081525081600390816200008f919062000358565b508060049081620000a1919062000358565b5050503373ffffffffffffffffffffffffffffffffffffffff1660808173ffffffffffffffffffffffffffffffffffffffff16815250506200043f565b600081519050919050565b7f4e487b7100000000000000000000000000000000000000000000000000000000600052604160045260246000fd5b7f4e487b7100000000000000000000000000000000000000000000000000000000600052602260045260246000fd5b600060028204905060018216806200016057607f821691505b60208210810362000176576200017562000118565b5b50919050565b60008190508160005260206000209050919050565b60006020601f8301049050919050565b600082821b905092915050565b600060088302620001e07fffffffffffffffffffffffffffffffffffffffffffffffffffffffffffffffff82620001a1565b620001ec8683620001a1565b95508019841693508086168417925050509392505050565b6000819050919050565b6000819050919050565b600062000239620002336200022d8462000204565b6200020e565b62000204565b9050919050565b6000819050919050565b620002558362000218565b6200026d620002648262000240565b848454620001ae565b825550505050565b600090565b6200028462000275565b620002918184846200024a565b505050565b5b81811015620002b957620002ad6000826200027a565b60018101905062000297565b5050565b601f8211156200030857620002d2816200017c565b620002dd8462000191565b81016020851015620002ed578190505b62000305620002fc8562000191565b83018262000296565b50505b505050565b600082821c905092915050565b60006200032d600019846008026200030d565b1980831691505092915050565b60006200034883836200031a565b9150826002028217905092915050565b6200036382620000de565b67ffffffffffffffff8111156200037f576200037e620000e9565b5b6200038b825462000147565b62000398828285620002bd565b600060209050601f831160018114620003d05760008415620003bb578287015190505b620003c785826200033a565b86555062000437565b601f198416620003e0866200017c565b60005b828110156200040a57848901518255600182019150602085019450602081019050620003e3565b868310156200042a578489015162000426601f8916826200031a565b8355505b6001600288020188555050505b505050505050565b6080516114d96200045b600039600061044e01526114d96000f3fe608060405234801561001057600080fd5b50600436106100cf5760003560e01c806370a082311161008c578063a0712d6811610066578063a0712d681461022a578063a457c2d714610246578063a9059cbb14610276578063dd62ed3e146102a6576100cf565b806370a08231146101be5780638da5cb5b146101ee57806395d89b411461020c576100cf565b806306fdde03146100d4578063095ea7b3146100f257806318160ddd1461012257806323b872dd14610140578063313ce56714610170578063395093511461018e575b600080fd5b6100dc6102d6565b6040516100e99190610cf3565b60405180910390f35b61010c60048036038101906101079190610dae565b610368565b6040516101199190610e09565b60405180910390f35b61012a61038b565b6040516101379190610e33565b60405180910390f35b61015a60048036038101906101559190610e4e565b610395565b6040516101679190610e09565b60405180910390f35b6101786103c4565b6040516101859190610ebd565b60405180910390f35b6101a860048036038101906101a39190610dae565b6103cd565b6040516101b59190610e09565b60405180910390f35b6101d860048036038101906101d39190610ed8565b610404565b6040516101e59190610e33565b60405180910390f35b6101f661044c565b6040516102039190610f14565b60405180910390f35b610214610470565b6040516102219190610cf3565b60405180910390f35b610244600480360381019061023f9190610f2f565b610502565b005b610260600480360381019061025b9190610dae565b61050f565b60405161026d9190610e09565b60405180910390f35b610290600480360381019061028b9190610dae565b610586565b60405161029d9190610e09565b60405180910390f35b6102c060048036038101906102bb9190610f5c565b6105a9565b6040516102cd9190610e33565b60405180910390f35b6060600380546102e590610fcb565b80601f016020809104026020016040519081016040528092919081815260200182805461031190610fcb565b801561035e5780601f106103335761010080835404028352916020019161035e565b820191906000526020600020905b81548152906001019060200180831161034157829003601f168201915b5050505050905090565b600080610373610630565b9050610380818585610638565b600191505092915050565b6000600254905090565b6000806103a0610630565b90506103ad858285610801565b6103b885858561088d565b60019150509392505050565b60006012905090565b6000806103d8610630565b90506103f98185856103ea85896105a9565b6103f4919061102b565b610638565b600191505092915050565b60008060008373ffffffffffffffffffffffffffffffffffffffff1673ffffffffffffffffffffffffffffffffffffffff168152602001908152602001600020549050919050565b7f000000000000000000000000000000000000000000000000000000000000000081565b60606004805461047f90610fcb565b80601f01602080910402602001604051908101604052809291908181526020018280546104ab90610fcb565b80156104f85780601f106104cd576101008083540402835291602001916104f8565b820191906000526020600020905b8154815290600101906020018083116104db57829003601f168201915b5050505050905090565b61050c3382610b03565b50565b60008061051a610630565b9050600061052882866105a9565b90508381101561056d576040517f08c379a0000000000000000000000000000000000000000000000000000000008152600401610564906110d1565b60405180910390fd5b61057a8286868403610638565b60019250505092915050565b600080610591610630565b905061059e81858561088d565b600191505092915050565b6000600160008473ffffffffffffffffffffffffffffffffffffffff1673ffffffffffffffffffffffffffffffffffffffff16815260200190815260200160002060008373ffffffffffffffffffffffffffffffffffffffff1673ffffffffffffffffffffffffffffffffffffffff16815260200190815260200160002054905092915050565b600033905090565b600073ffffffffffffffffffffffffffffffffffffffff168373ffffffffffffffffffffffffffffffffffffffff16036106a7576040517f08c379a000000000000000000000000000000000000000000000000000000000815260040161069e90611163565b60405180910390fd5b600073ffffffffffffffffffffffffffffffffffffffff168273ffffffffffffffffffffffffffffffffffffffff1603610716576040517f08c379a000000000000000000000000000000000000000000000000000000000815260040161070d906111f5565b60405180910390fd5b80600160008573ffffffffffffffffffffffffffffffffffffffff1673ffffffffffffffffffffffffffffffffffffffff16815260200190815260200160002060008473ffffffffffffffffffffffffffffffffffffffff1673ffffffffffffffffffffffffffffffffffffffff168152602001908152602001600020819055508173ffffffffffffffffffffffffffffffffffffffff168373ffffffffffffffffffffffffffffffffffffffff167f8c5be1e5ebec7d5bd14f71427d1e84f3dd0314c0f7b2291e5b200ac8c7c3b925836040516107f49190610e33565b60405180910390a3505050565b600061080d84846105a9565b90507fffffffffffffffffffffffffffffffffffffffffffffffffffffffffffffffff81146108875781811015610879576040517f08c379a000000000000000000000000000000000000000000000000000000000815260040161087090611261565b60405180910390fd5b6108868484848403610638565b5b50505050565b600073ffffffffffffffffffffffffffffffffffffffff168373ffffffffffffffffffffffffffffffffffffffff16036108fc576040517f08c379a00000000000000000000000000000000000000000000000000000000081526004016108f3906112f3565b60405180910390fd5b600073ffffffffffffffffffffffffffffffffffffffff168273ffffffffffffffffffffffffffffffffffffffff160361096b576040517f08c379a000000000000000000000000000000000000000000000000000000000815260040161096290611385565b60405180910390fd5b610976838383610c59565b60008060008573ffffffffffffffffffffffffffffffffffffffff1673ffffffffffffffffffffffffffffffffffffffff168152602001908152602001600020549050818110156109fc576040517f08c379a00000000000000000000000000000000000000000000000000000000081526004016109f390611417565b60405180910390fd5b8181036000808673ffffffffffffffffffffffffffffffffffffffff1673ffffffffffffffffffffffffffffffffffffffff16815260200190815260200160002081905550816000808573ffffffffffffffffffffffffffffffffffffffff1673ffffffffffffffffffffffffffffffffffffffff168152602001908152602001600020600082825401925050819055508273ffffffffffffffffffffffffffffffffffffffff168473ffffffffffffffffffffffffffffffffffffffff167fddf252ad1be2c89b69c2b068fc378daa952ba7f163c4a11628f55a4df523b3ef84604051610aea9190610e33565b60405180910390a3610afd848484610c5e565b50505050565b600073ffffffffffffffffffffffffffffffffffffffff168273ffffffffffffffffffffffffffffffffffffffff1603610b72576040517f08c379a0000000000000000000000000000000000000000000000000000000008152600401610b6990611483565b60405180910390fd5b610b7e60008383610c59565b8060026000828254610b90919061102b565b92505081905550806000808473ffffffffffffffffffffffffffffffffffffffff1673ffffffffffffffffffffffffffffffffffffffff168152602001908152602001600020600082825401925050819055508173ffffffffffffffffffffffffffffffffffffffff16600073ffffffffffffffffffffffffffffffffffffffff167fddf252ad1be2c89b69c2b068fc378daa952ba7f163c4a11628f55a4df523b3ef83604051610c419190610e33565b60405180910390a3610c5560008383610c5e565b5050565b505050565b505050565b600081519050919050565b600082825260208201905092915050565b60005b83811015610c9d578082015181840152602081019050610c82565b60008484015250505050565b6000601f19601f8301169050919050565b6000610cc582610c63565b610ccf8185610c6e565b9350610cdf818560208601610c7f565b610ce881610ca9565b840191505092915050565b60006020820190508181036000830152610d0d8184610cba565b905092915050565b600080fd5b600073ffffffffffffffffffffffffffffffffffffffff82169050919050565b6000610d4582610d1a565b9050919050565b610d5581610d3a565b8114610d6057600080fd5b50565b600081359050610d7281610d4c565b92915050565b6000819050919050565b610d8b81610d78565b8114610d9657600080fd5b50565b600081359050610da881610d82565b92915050565b60008060408385031215610dc557610dc4610d15565b5b6000610dd385828601610d63565b9250506020610de485828601610d99565b9150509250929050565b60008115159050919050565b610e0381610dee565b82525050565b6000602082019050610e1e6000830184610dfa565b92915050565b610e2d81610d78565b82525050565b6000602082019050610e486000830184610e24565b92915050565b600080600060608486031215610e6757610e66610d15565b5b6000610e7586828701610d63565b9350506020610e8686828701610d63565b9250506040610e9786828701610d99565b9150509250925092565b600060ff82169050919050565b610eb781610ea1565b82525050565b6000602082019050610ed26000830184610eae565b92915050565b600060208284031215610eee57610eed610d15565b5b6000610efc84828501610d63565b91505092915050565b610f0e81610d3a565b82525050565b6000602082019050610f296000830184610f05565b92915050565b600060208284031215610f4557610f44610d15565b5b6000610f5384828501610d99565b91505092915050565b60008060408385031215610f7357610f72610d15565b5b6000610f8185828601610d63565b9250506020610f9285828601610d63565b9150509250929050565b7f4e487b7100000000000000000000000000000000000000000000000000000000600052602260045260246000fd5b60006002820490506001821680610fe357607f821691505b602082108103610ff657610ff5610f9c565b5b50919050565b7f4e487b7100000000000000000000000000000000000000000000000000000000600052601160045260246000fd5b600061103682610d78565b915061104183610d78565b925082820190508082111561105957611058610ffc565b5b92915050565b7f45524332303a2064656372656173656420616c6c6f77616e63652062656c6f7760008201527f207a65726f000000000000000000000000000000000000000000000000000000602082015250565b60006110bb602583610c6e565b91506110c68261105f565b604082019050919050565b600060208201905081810360008301526110ea816110ae565b9050919050565b7f45524332303a20617070726f76652066726f6d20746865207a65726f2061646460008201527f7265737300000000000000000000000000000000000000000000000000000000602082015250565b600061114d602483610c6e565b9150611158826110f1565b604082019050919050565b6000602082019050818103600083015261117c81611140565b9050919050565b7f45524332303a20617070726f766520746f20746865207a65726f20616464726560008201527f7373000000000000000000000000000000000000000000000000000000000000602082015250565b60006111df602283610c6e565b91506111ea82611183565b604082019050919050565b6000602082019050818103600083015261120e816111d2565b9050919050565b7f45524332303a20696e73756666696369656e7420616c6c6f77616e6365000000600082015250565b600061124b601d83610c6e565b915061125682611215565b602082019050919050565b6000602082019050818103600083015261127a8161123e565b9050919050565b7f45524332303a207472616e736665722066726f6d20746865207a65726f20616460008201527f6472657373000000000000000000000000000000000000000000000000000000602082015250565b60006112dd602583610c6e565b91506112e882611281565b604082019050919050565b6000602082019050818103600083015261130c816112d0565b9050919050565b7f45524332303a207472616e7366657220746f20746865207a65726f206164647260008201527f6573730000000000000000000000000000000000000000000000000000000000602082015250565b600061136f602383610c6e565b915061137a82611313565b604082019050919050565b6000602082019050818103600083015261139e81611362565b9050919050565b7f45524332303a207472616e7366657220616d6f756e742065786365656473206260008201527f616c616e63650000000000000000000000000000000000000000000000000000602082015250565b6000611401602683610c6e565b915061140c826113a5565b604082019050919050565b60006020820190508181036000830152611430816113f4565b9050919050565b7f45524332303a206d696e7420746f20746865207a65726f206164647265737300600082015250565b600061146d601f83610c6e565b915061147882611437565b602082019050919050565b6000602082019050818103600083015261149c81611460565b905091905056fea264697066735822122079c1b245a736e061eebdb404bd1f1195c1d200dc673bf5e55fe81b82cd4f2a0964736f6c63430008110033",
  "devdoc": {
    "kind": "dev",
    "methods": {
      "allowance(address,address)": {
        "details": "See {IERC20-allowance}."
      },
      "approve(address,uint256)": {
        "details": "See {IERC20-approve}. NOTE: If `amount` is the maximum `uint256`, the allowance is not updated on `transferFrom`. This is semantically equivalent to an infinite approval. Requirements: - `spender` cannot be the zero address."
      },
      "balanceOf(address)": {
        "details": "See {IERC20-balanceOf}."
      },
      "decimals()": {
        "details": "Returns the number of decimals used to get its user representation. For example, if `decimals` equals `2`, a balance of `505` tokens should be displayed to a user as `5.05` (`505 / 10 ** 2`). Tokens usually opt for a value of 18, imitating the relationship between Ether and Wei. This is the value {ERC20} uses, unless this function is overridden; NOTE: This information is only used for _display_ purposes: it in no way affects any of the arithmetic of the contract, including {IERC20-balanceOf} and {IERC20-transfer}."
      },
      "decreaseAllowance(address,uint256)": {
        "details": "Atomically decreases the allowance granted to `spender` by the caller. This is an alternative to {approve} that can be used as a mitigation for problems described in {IERC20-approve}. Emits an {Approval} event indicating the updated allowance. Requirements: - `spender` cannot be the zero address. - `spender` must have allowance for the caller of at least `subtractedValue`."
      },
      "increaseAllowance(address,uint256)": {
        "details": "Atomically increases the allowance granted to `spender` by the caller. This is an alternative to {approve} that can be used as a mitigation for problems described in {IERC20-approve}. Emits an {Approval} event indicating the updated allowance. Requirements: - `spender` cannot be the zero address."
      },
      "name()": {
        "details": "Returns the name of the token."
      },
      "symbol()": {
        "details": "Returns the symbol of the token, usually a shorter version of the name."
      },
      "totalSupply()": {
        "details": "See {IERC20-totalSupply}."
      },
      "transfer(address,uint256)": {
        "details": "See {IERC20-transfer}. Requirements: - `to` cannot be the zero address. - the caller must have a balance of at least `amount`."
      },
      "transferFrom(address,address,uint256)": {
        "details": "See {IERC20-transferFrom}. Emits an {Approval} event indicating the updated allowance. This is not required by the EIP. See the note at the beginning of {ERC20}. NOTE: Does not update the allowance if the current allowance is the maximum `uint256`. Requirements: - `from` and `to` cannot be the zero address. - `from` must have a balance of at least `amount`. - the caller must have allowance for ``from``'s tokens of at least `amount`."
      }
    },
    "version": 1
  },
  "userdoc": {
    "kind": "user",
    "methods": {},
    "version": 1
  },
  "storageLayout": {
    "storage": [
      {
        "astId": 15,
        "contract": "contracts/SimpleDAONFT.sol:SimplNFT",
        "label": "_balances",
        "offset": 0,
        "slot": "0",
        "type": "t_mapping(t_address,t_uint256)"
      },
      {
        "astId": 21,
        "contract": "contracts/SimpleDAONFT.sol:SimplNFT",
        "label": "_allowances",
        "offset": 0,
        "slot": "1",
        "type": "t_mapping(t_address,t_mapping(t_address,t_uint256))"
      },
      {
        "astId": 23,
        "contract": "contracts/SimpleDAONFT.sol:SimplNFT",
        "label": "_totalSupply",
        "offset": 0,
        "slot": "2",
        "type": "t_uint256"
      },
      {
        "astId": 25,
        "contract": "contracts/SimpleDAONFT.sol:SimplNFT",
        "label": "_name",
        "offset": 0,
        "slot": "3",
        "type": "t_string_storage"
      },
      {
        "astId": 27,
        "contract": "contracts/SimpleDAONFT.sol:SimplNFT",
        "label": "_symbol",
        "offset": 0,
        "slot": "4",
        "type": "t_string_storage"
      }
    ],
    "types": {
      "t_address": {
        "encoding": "inplace",
        "label": "address",
        "numberOfBytes": "20"
      },
      "t_mapping(t_address,t_mapping(t_address,t_uint256))": {
        "encoding": "mapping",
        "key": "t_address",
        "label": "mapping(address => mapping(address => uint256))",
        "numberOfBytes": "32",
        "value": "t_mapping(t_address,t_uint256)"
      },
      "t_mapping(t_address,t_uint256)": {
        "encoding": "mapping",
        "key": "t_address",
        "label": "mapping(address => uint256)",
        "numberOfBytes": "32",
        "value": "t_uint256"
      },
      "t_string_storage": {
        "encoding": "bytes",
        "label": "string",
        "numberOfBytes": "32"
      },
      "t_uint256": {
        "encoding": "inplace",
        "label": "uint256",
        "numberOfBytes": "32"
      }
    }
  }
}