{
  "address": "0x5FbDB2315678afecb367f032d93F642f64180aa3",
  "abi": [
    {
      "inputs": [],
      "stateMutability": "nonpayable",
      "type": "constructor"
    },
    {
      "anonymous": false,
      "inputs": [
        {
          "indexed": false,
          "internalType": "uint256",
          "name": "_id",
          "type": "uint256"
        },
        {
          "indexed": false,
          "internalType": "string",
          "name": "Title",
          "type": "string"
        },
        {
          "indexed": false,
          "internalType": "address",
          "name": "createdBy",
          "type": "address"
        }
      ],
      "name": "proposalCreated",
      "type": "event"
    },
    {
      "inputs": [
        {
          "internalType": "uint256",
          "name": "",
          "type": "uint256"
        }
      ],
      "name": "ProposalData",
      "outputs": [
        {
          "internalType": "uint256",
          "name": "ProposalID",
          "type": "uint256"
        },
        {
          "internalType": "string",
          "name": "proposalTitle",
          "type": "string"
        },
        {
          "internalType": "string",
          "name": "proposalDescription",
          "type": "string"
        },
        {
          "internalType": "address",
          "name": "createdBy",
          "type": "address"
        },
        {
          "internalType": "uint256",
          "name": "yesVotes",
          "type": "uint256"
        },
        {
          "internalType": "uint256",
          "name": "noVotes",
          "type": "uint256"
        },
        {
          "internalType": "uint256",
          "name": "totalVotes",
          "type": "uint256"
        },
        {
          "internalType": "bool",
          "name": "excecuted",
          "type": "bool"
        }
      ],
      "stateMutability": "view",
      "type": "function"
    },
    {
      "inputs": [
        {
          "internalType": "string",
          "name": "_Title",
          "type": "string"
        },
        {
          "internalType": "string",
          "name": "_Description",
          "type": "string"
        }
      ],
      "name": "createProposal",
      "outputs": [],
      "stateMutability": "nonpayable",
      "type": "function"
    },
    {
      "inputs": [
        {
          "internalType": "uint256",
          "name": "_proposalId",
          "type": "uint256"
        }
      ],
      "name": "exceuteProposal",
      "outputs": [],
      "stateMutability": "view",
      "type": "function"
    },
    {
      "inputs": [
        {
          "internalType": "uint256",
          "name": "_proposalId",
          "type": "uint256"
        }
      ],
      "name": "getProposal",
      "outputs": [
        {
          "components": [
            {
              "internalType": "uint256",
              "name": "ProposalID",
              "type": "uint256"
            },
            {
              "internalType": "string",
              "name": "proposalTitle",
              "type": "string"
            },
            {
              "internalType": "string",
              "name": "proposalDescription",
              "type": "string"
            },
            {
              "internalType": "address",
              "name": "createdBy",
              "type": "address"
            },
            {
              "internalType": "uint256",
              "name": "yesVotes",
              "type": "uint256"
            },
            {
              "internalType": "uint256",
              "name": "noVotes",
              "type": "uint256"
            },
            {
              "internalType": "uint256",
              "name": "totalVotes",
              "type": "uint256"
            },
            {
              "internalType": "bool",
              "name": "excecuted",
              "type": "bool"
            }
          ],
          "internalType": "struct SimplDAO.Proposal",
          "name": "",
          "type": "tuple"
        }
      ],
      "stateMutability": "view",
      "type": "function"
    },
    {
      "inputs": [],
      "name": "getProposalCount",
      "outputs": [
        {
          "internalType": "uint256",
          "name": "",
          "type": "uint256"
        }
      ],
      "stateMutability": "view",
      "type": "function"
    },
    {
      "inputs": [],
      "name": "proposalCount",
      "outputs": [
        {
          "internalType": "uint256",
          "name": "",
          "type": "uint256"
        }
      ],
      "stateMutability": "view",
      "type": "function"
    },
    {
      "inputs": [
        {
          "internalType": "uint256",
          "name": "_proposalId",
          "type": "uint256"
        },
        {
          "internalType": "enum SimplDAO.voteOption",
          "name": "vote",
          "type": "uint8"
        },
        {
          "internalType": "address",
          "name": "nftAddress",
          "type": "address"
        }
      ],
      "name": "voteProposal",
      "outputs": [],
      "stateMutability": "view",
      "type": "function"
    }
  ],
  "transactionHash": "0x7e295dfc4cce6e62e63328fbbbdc76407e552a9e6129a399cd7bff99d06dc614",
  "args": [],
  "numDeployments": 1,
  "solcInputHash": "38a18208683a1c4c5612728e730c5fc5",
  "bytecode": "0x608060405234801561001057600080fd5b50336000806101000a81548173ffffffffffffffffffffffffffffffffffffffff021916908373ffffffffffffffffffffffffffffffffffffffff16021790555061180a806100606000396000f3fe608060405234801561001057600080fd5b506004361061007d5760003560e01c8063c08cc02d1161005b578063c08cc02d146100f1578063c7f758a81461010f578063da35c6641461013f578063fd0b8fe01461015d5761007d565b80630d6288a71461008257806365e481e2146100b95780639160fabe146100d5575b600080fd5b61009c60048036038101906100979190610cc3565b610179565b6040516100b0989796959493929190610deb565b60405180910390f35b6100d360048036038101906100ce9190610fac565b6102fe565b005b6100ef60048036038101906100ea9190610cc3565b6103e8565b005b6100f96106ca565b6040516101069190611024565b60405180910390f35b61012960048036038101906101249190610cc3565b6106d4565b604051610136919061116d565b60405180910390f35b6101476108c5565b6040516101549190611024565b60405180910390f35b610177600480360381019061017291906111e0565b6108cb565b005b60026020528060005260406000206000915090508060000154908060010180546101a290611262565b80601f01602080910402602001604051908101604052809291908181526020018280546101ce90611262565b801561021b5780601f106101f05761010080835404028352916020019161021b565b820191906000526020600020905b8154815290600101906020018083116101fe57829003601f168201915b50505050509080600201805461023090611262565b80601f016020809104026020016040519081016040528092919081815260200182805461025c90611262565b80156102a95780601f1061027e576101008083540402835291602001916102a9565b820191906000526020600020905b81548152906001019060200180831161028c57829003601f168201915b5050505050908060030160009054906101000a900473ffffffffffffffffffffffffffffffffffffffff16908060040154908060050154908060060154908060070160009054906101000a900460ff16905088565b60006002600060015481526020019081526020016000209050600154816000018190555082816001019081610333919061143f565b5081816002019081610345919061143f565b50338160030160006101000a81548173ffffffffffffffffffffffffffffffffffffffff021916908373ffffffffffffffffffffffffffffffffffffffff1602179055506001600081548092919061039c90611540565b91905055507f714aa979410b0af635e3d28a85a5b282ef1db3f1f2052962359cbdb2c53747d1816000015482600101336040516103db9392919061160c565b60405180910390a1505050565b6000811161042b576040517f08c379a000000000000000000000000000000000000000000000000000000000815260040161042290611696565b60405180910390fd5b600060026000838152602001908152602001600020604051806101000160405290816000820154815260200160018201805461046690611262565b80601f016020809104026020016040519081016040528092919081815260200182805461049290611262565b80156104df5780601f106104b4576101008083540402835291602001916104df565b820191906000526020600020905b8154815290600101906020018083116104c257829003601f168201915b505050505081526020016002820180546104f890611262565b80601f016020809104026020016040519081016040528092919081815260200182805461052490611262565b80156105715780601f1061054657610100808354040283529160200191610571565b820191906000526020600020905b81548152906001019060200180831161055457829003601f168201915b505050505081526020016003820160009054906101000a900473ffffffffffffffffffffffffffffffffffffffff1673ffffffffffffffffffffffffffffffffffffffff1673ffffffffffffffffffffffffffffffffffffffff1681526020016004820154815260200160058201548152602001600682015481526020016007820160009054906101000a900460ff1615151515815250509050806060015173ffffffffffffffffffffffffffffffffffffffff163373ffffffffffffffffffffffffffffffffffffffff161461067d576040517f08c379a000000000000000000000000000000000000000000000000000000000815260040161067490611728565b60405180910390fd5b8060a00151816080015111156106a35760018160e00190151590811515815250506106c6565b8060a00151816080015110156106c55760008160e00190151590811515815250505b5b5050565b6000600154905090565b6106dc610c1c565b600060026000848152602001908152602001600020604051806101000160405290816000820154815260200160018201805461071790611262565b80601f016020809104026020016040519081016040528092919081815260200182805461074390611262565b80156107905780601f1061076557610100808354040283529160200191610790565b820191906000526020600020905b81548152906001019060200180831161077357829003601f168201915b505050505081526020016002820180546107a990611262565b80601f01602080910402602001604051908101604052809291908181526020018280546107d590611262565b80156108225780601f106107f757610100808354040283529160200191610822565b820191906000526020600020905b81548152906001019060200180831161080557829003601f168201915b505050505081526020016003820160009054906101000a900473ffffffffffffffffffffffffffffffffffffffff1673ffffffffffffffffffffffffffffffffffffffff1673ffffffffffffffffffffffffffffffffffffffff1681526020016004820154815260200160058201548152602001600682015481526020016007820160009054906101000a900460ff161515151581525050905080915050919050565b60015481565b6000831161090e576040517f08c379a000000000000000000000000000000000000000000000000000000000815260040161090590611696565b60405180910390fd5b60008173ffffffffffffffffffffffffffffffffffffffff166370a08231336040518263ffffffff1660e01b81526004016109499190611748565b602060405180830381865afa158015610966573d6000803e3d6000fd5b505050506040513d601f19601f8201168201806040525081019061098a9190611778565b905060006002600086815260200190815260200160002060405180610100016040529081600082015481526020016001820180546109c790611262565b80601f01602080910402602001604051908101604052809291908181526020018280546109f390611262565b8015610a405780601f10610a1557610100808354040283529160200191610a40565b820191906000526020600020905b815481529060010190602001808311610a2357829003601f168201915b50505050508152602001600282018054610a5990611262565b80601f0160208091040260200160405190810160405280929190818152602001828054610a8590611262565b8015610ad25780601f10610aa757610100808354040283529160200191610ad2565b820191906000526020600020905b815481529060010190602001808311610ab557829003601f168201915b505050505081526020016003820160009054906101000a900473ffffffffffffffffffffffffffffffffffffffff1673ffffffffffffffffffffffffffffffffffffffff1673ffffffffffffffffffffffffffffffffffffffff1681526020016004820154815260200160058201548152602001600682015481526020016007820160009054906101000a900460ff161515151581525050905060005b82811015610c145760006001811115610b8b57610b8a6117a5565b5b856001811115610b9e57610b9d6117a5565b5b03610bbe57816080018051809190610bb590611540565b81525050610c01565b600180811115610bd157610bd06117a5565b5b856001811115610be457610be36117a5565b5b03610c00578160a0018051809190610bfb90611540565b815250505b5b8080610c0c90611540565b915050610b6f565b505050505050565b604051806101000160405280600081526020016060815260200160608152602001600073ffffffffffffffffffffffffffffffffffffffff1681526020016000815260200160008152602001600081526020016000151581525090565b6000604051905090565b600080fd5b600080fd5b6000819050919050565b610ca081610c8d565b8114610cab57600080fd5b50565b600081359050610cbd81610c97565b92915050565b600060208284031215610cd957610cd8610c83565b5b6000610ce784828501610cae565b91505092915050565b610cf981610c8d565b82525050565b600081519050919050565b600082825260208201905092915050565b60005b83811015610d39578082015181840152602081019050610d1e565b60008484015250505050565b6000601f19601f8301169050919050565b6000610d6182610cff565b610d6b8185610d0a565b9350610d7b818560208601610d1b565b610d8481610d45565b840191505092915050565b600073ffffffffffffffffffffffffffffffffffffffff82169050919050565b6000610dba82610d8f565b9050919050565b610dca81610daf565b82525050565b60008115159050919050565b610de581610dd0565b82525050565b600061010082019050610e01600083018b610cf0565b8181036020830152610e13818a610d56565b90508181036040830152610e278189610d56565b9050610e366060830188610dc1565b610e436080830187610cf0565b610e5060a0830186610cf0565b610e5d60c0830185610cf0565b610e6a60e0830184610ddc565b9998505050505050505050565b600080fd5b600080fd5b7f4e487b7100000000000000000000000000000000000000000000000000000000600052604160045260246000fd5b610eb982610d45565b810181811067ffffffffffffffff82111715610ed857610ed7610e81565b5b80604052505050565b6000610eeb610c79565b9050610ef78282610eb0565b919050565b600067ffffffffffffffff821115610f1757610f16610e81565b5b610f2082610d45565b9050602081019050919050565b82818337600083830152505050565b6000610f4f610f4a84610efc565b610ee1565b905082815260208101848484011115610f6b57610f6a610e7c565b5b610f76848285610f2d565b509392505050565b600082601f830112610f9357610f92610e77565b5b8135610fa3848260208601610f3c565b91505092915050565b60008060408385031215610fc357610fc2610c83565b5b600083013567ffffffffffffffff811115610fe157610fe0610c88565b5b610fed85828601610f7e565b925050602083013567ffffffffffffffff81111561100e5761100d610c88565b5b61101a85828601610f7e565b9150509250929050565b60006020820190506110396000830184610cf0565b92915050565b61104881610c8d565b82525050565b600082825260208201905092915050565b600061106a82610cff565b611074818561104e565b9350611084818560208601610d1b565b61108d81610d45565b840191505092915050565b6110a181610daf565b82525050565b6110b081610dd0565b82525050565b6000610100830160008301516110cf600086018261103f565b50602083015184820360208601526110e7828261105f565b91505060408301518482036040860152611101828261105f565b91505060608301516111166060860182611098565b506080830151611129608086018261103f565b5060a083015161113c60a086018261103f565b5060c083015161114f60c086018261103f565b5060e083015161116260e08601826110a7565b508091505092915050565b6000602082019050818103600083015261118781846110b6565b905092915050565b6002811061119c57600080fd5b50565b6000813590506111ae8161118f565b92915050565b6111bd81610daf565b81146111c857600080fd5b50565b6000813590506111da816111b4565b92915050565b6000806000606084860312156111f9576111f8610c83565b5b600061120786828701610cae565b93505060206112188682870161119f565b9250506040611229868287016111cb565b9150509250925092565b7f4e487b7100000000000000000000000000000000000000000000000000000000600052602260045260246000fd5b6000600282049050600182168061127a57607f821691505b60208210810361128d5761128c611233565b5b50919050565b60008190508160005260206000209050919050565b60006020601f8301049050919050565b600082821b905092915050565b6000600883026112f57fffffffffffffffffffffffffffffffffffffffffffffffffffffffffffffffff826112b8565b6112ff86836112b8565b95508019841693508086168417925050509392505050565b6000819050919050565b600061133c61133761133284610c8d565b611317565b610c8d565b9050919050565b6000819050919050565b61135683611321565b61136a61136282611343565b8484546112c5565b825550505050565b600090565b61137f611372565b61138a81848461134d565b505050565b5b818110156113ae576113a3600082611377565b600181019050611390565b5050565b601f8211156113f3576113c481611293565b6113cd846112a8565b810160208510156113dc578190505b6113f06113e8856112a8565b83018261138f565b50505b505050565b600082821c905092915050565b6000611416600019846008026113f8565b1980831691505092915050565b600061142f8383611405565b9150826002028217905092915050565b61144882610cff565b67ffffffffffffffff81111561146157611460610e81565b5b61146b8254611262565b6114768282856113b2565b600060209050601f8311600181146114a95760008415611497578287015190505b6114a18582611423565b865550611509565b601f1984166114b786611293565b60005b828110156114df578489015182556001820191506020850194506020810190506114ba565b868310156114fc57848901516114f8601f891682611405565b8355505b6001600288020188555050505b505050505050565b7f4e487b7100000000000000000000000000000000000000000000000000000000600052601160045260246000fd5b600061154b82610c8d565b91507fffffffffffffffffffffffffffffffffffffffffffffffffffffffffffffffff820361157d5761157c611511565b5b600182019050919050565b6000815461159581611262565b61159f8186610d0a565b945060018216600081146115ba57600181146115d057611603565b60ff198316865281151560200286019350611603565b6115d985611293565b60005b838110156115fb578154818901526001820191506020810190506115dc565b808801955050505b50505092915050565b60006060820190506116216000830186610cf0565b81810360208301526116338185611588565b90506116426040830184610dc1565b949350505050565b7f50726f706f73616c20646f65736e277420657869737400000000000000000000600082015250565b6000611680601683610d0a565b915061168b8261164a565b602082019050919050565b600060208201905081810360008301526116af81611673565b9050919050565b7f746865206f776e6572206f6e6c792063616e206578636563757465207468652060008201527f70726f706f73616c000000000000000000000000000000000000000000000000602082015250565b6000611712602883610d0a565b915061171d826116b6565b604082019050919050565b6000602082019050818103600083015261174181611705565b9050919050565b600060208201905061175d6000830184610dc1565b92915050565b60008151905061177281610c97565b92915050565b60006020828403121561178e5761178d610c83565b5b600061179c84828501611763565b91505092915050565b7f4e487b7100000000000000000000000000000000000000000000000000000000600052602160045260246000fdfea2646970667358221220bde4d2177ee1ea7e76db9a1bef1283962a66d3af27ee7008723c7ef0da949c0164736f6c63430008110033",
  "devdoc": {
    "kind": "dev",
    "methods": {},
    "version": 1
  },
  "userdoc": {
    "kind": "user",
    "methods": {},
    "version": 1
  },
  "storageLayout": {
    "storage": [
      {
        "astId": 162,
        "contract": "contracts/SimpleDAO.sol:SimplDAO",
        "label": "_owner",
        "offset": 0,
        "slot": "0",
        "type": "t_address"
      },
      {
        "astId": 181,
        "contract": "contracts/SimpleDAO.sol:SimplDAO",
        "label": "proposalCount",
        "offset": 0,
        "slot": "1",
        "type": "t_uint256"
      },
      {
        "astId": 186,
        "contract": "contracts/SimpleDAO.sol:SimplDAO",
        "label": "ProposalData",
        "offset": 0,
        "slot": "2",
        "type": "t_mapping(t_uint256,t_struct(Proposal)179_storage)"
      }
    ],
    "types": {
      "t_address": {
        "encoding": "inplace",
        "label": "address",
        "numberOfBytes": "20"
      },
      "t_bool": {
        "encoding": "inplace",
        "label": "bool",
        "numberOfBytes": "1"
      },
      "t_mapping(t_uint256,t_struct(Proposal)179_storage)": {
        "encoding": "mapping",
        "key": "t_uint256",
        "label": "mapping(uint256 => struct SimplDAO.Proposal)",
        "numberOfBytes": "32",
        "value": "t_struct(Proposal)179_storage"
      },
      "t_string_storage": {
        "encoding": "bytes",
        "label": "string",
        "numberOfBytes": "32"
      },
      "t_struct(Proposal)179_storage": {
        "encoding": "inplace",
        "label": "struct SimplDAO.Proposal",
        "members": [
          {
            "astId": 164,
            "contract": "contracts/SimpleDAO.sol:SimplDAO",
            "label": "ProposalID",
            "offset": 0,
            "slot": "0",
            "type": "t_uint256"
          },
          {
            "astId": 166,
            "contract": "contracts/SimpleDAO.sol:SimplDAO",
            "label": "proposalTitle",
            "offset": 0,
            "slot": "1",
            "type": "t_string_storage"
          },
          {
            "astId": 168,
            "contract": "contracts/SimpleDAO.sol:SimplDAO",
            "label": "proposalDescription",
            "offset": 0,
            "slot": "2",
            "type": "t_string_storage"
          },
          {
            "astId": 170,
            "contract": "contracts/SimpleDAO.sol:SimplDAO",
            "label": "createdBy",
            "offset": 0,
            "slot": "3",
            "type": "t_address"
          },
          {
            "astId": 172,
            "contract": "contracts/SimpleDAO.sol:SimplDAO",
            "label": "yesVotes",
            "offset": 0,
            "slot": "4",
            "type": "t_uint256"
          },
          {
            "astId": 174,
            "contract": "contracts/SimpleDAO.sol:SimplDAO",
            "label": "noVotes",
            "offset": 0,
            "slot": "5",
            "type": "t_uint256"
          },
          {
            "astId": 176,
            "contract": "contracts/SimpleDAO.sol:SimplDAO",
            "label": "totalVotes",
            "offset": 0,
            "slot": "6",
            "type": "t_uint256"
          },
          {
            "astId": 178,
            "contract": "contracts/SimpleDAO.sol:SimplDAO",
            "label": "excecuted",
            "offset": 0,
            "slot": "7",
            "type": "t_bool"
          }
        ],
        "numberOfBytes": "256"
      },
      "t_uint256": {
        "encoding": "inplace",
        "label": "uint256",
        "numberOfBytes": "32"
      }
    }
  }
}